{
  "_format": "hh-sol-artifact-1",
  "contractName": "DomCrowdfund",
  "sourceName": "contracts/DomCrowdfund.sol",
  "abi": [
    {
      "inputs": [],
      "stateMutability": "nonpayable",
      "type": "constructor"
    },
    {
      "inputs": [],
      "name": "AlreadyWithdrawn",
      "type": "error"
    },
    {
      "inputs": [],
      "name": "CallerIsNotAPledger",
      "type": "error"
    },
    {
      "inputs": [],
      "name": "CallerIsNotCampaignCreator",
      "type": "error"
    },
    {
      "inputs": [],
      "name": "CampaignGoalIsNotMet",
      "type": "error"
    },
    {
      "inputs": [],
      "name": "CampaignHasExpired",
      "type": "error"
    },
    {
      "inputs": [],
      "name": "CampaignIDDoesNotExist",
      "type": "error"
    },
    {
      "inputs": [],
      "name": "CampaignIsStillActive",
      "type": "error"
    },
    {
      "inputs": [],
      "name": "InsufficientFunds",
      "type": "error"
    },
    {
      "inputs": [],
      "name": "MustSendPledgeFunds",
      "type": "error"
    },
    {
      "inputs": [],
      "name": "SuccessfulCampaign_FunctionClosed",
      "type": "error"
    },
    {
      "anonymous": false,
      "inputs": [
        {
          "indexed": true,
          "internalType": "uint256",
          "name": "",
          "type": "uint256"
        },
        {
          "indexed": false,
          "internalType": "address",
          "name": "",
          "type": "address"
        },
        {
          "indexed": false,
          "internalType": "uint256",
          "name": "",
          "type": "uint256"
        },
        {
          "indexed": false,
          "internalType": "uint256",
          "name": "",
          "type": "uint256"
        },
        {
          "indexed": false,
          "internalType": "uint256",
          "name": "",
          "type": "uint256"
        },
        {
          "indexed": false,
          "internalType": "uint32",
          "name": "",
          "type": "uint32"
        }
      ],
      "name": "CampaignCreated",
      "type": "event"
    },
    {
      "anonymous": false,
      "inputs": [
        {
          "indexed": false,
          "internalType": "address payable",
          "name": "",
          "type": "address"
        }
      ],
      "name": "CampaignFundsSent",
      "type": "event"
    },
    {
      "anonymous": false,
      "inputs": [
        {
          "indexed": false,
          "internalType": "uint256",
          "name": "",
          "type": "uint256"
        }
      ],
      "name": "CampaignGoalMet_RAWK",
      "type": "event"
    },
    {
      "anonymous": false,
      "inputs": [
        {
          "indexed": false,
          "internalType": "address",
          "name": "",
          "type": "address"
        },
        {
          "indexed": false,
          "internalType": "uint256",
          "name": "",
          "type": "uint256"
        },
        {
          "indexed": false,
          "internalType": "uint256",
          "name": "",
          "type": "uint256"
        }
      ],
      "name": "CampaignPledge",
      "type": "event"
    },
    {
      "anonymous": false,
      "inputs": [
        {
          "indexed": false,
          "internalType": "uint32",
          "name": "",
          "type": "uint32"
        },
        {
          "indexed": false,
          "internalType": "address",
          "name": "",
          "type": "address"
        },
        {
          "indexed": false,
          "internalType": "uint256",
          "name": "",
          "type": "uint256"
        }
      ],
      "name": "CampaignRefundWithdrawal",
      "type": "event"
    },
    {
      "anonymous": false,
      "inputs": [
        {
          "indexed": true,
          "internalType": "address",
          "name": "previousOwner",
          "type": "address"
        },
        {
          "indexed": true,
          "internalType": "address",
          "name": "newOwner",
          "type": "address"
        }
      ],
      "name": "OwnershipTransferred",
      "type": "event"
    },
    {
      "anonymous": false,
      "inputs": [
        {
          "indexed": false,
          "internalType": "address payable",
          "name": "",
          "type": "address"
        },
        {
          "indexed": false,
          "internalType": "uint256",
          "name": "",
          "type": "uint256"
        }
      ],
      "name": "t0wnTokensClaimed",
      "type": "event"
    },
    {
      "stateMutability": "payable",
      "type": "fallback"
    },
    {
      "inputs": [
        {
          "internalType": "uint256",
          "name": "",
          "type": "uint256"
        }
      ],
      "name": "allCampaigns",
      "outputs": [
        {
          "internalType": "string",
          "name": "title",
          "type": "string"
        },
        {
          "internalType": "address",
          "name": "creator",
          "type": "address"
        },
        {
          "internalType": "uint256",
          "name": "targetAmount",
          "type": "uint256"
        },
        {
          "internalType": "uint256",
          "name": "refundBonus",
          "type": "uint256"
        },
        {
          "internalType": "uint256",
          "name": "campaignExpiryDate",
          "type": "uint256"
        },
        {
          "internalType": "uint32",
          "name": "maxEarlyPledgers",
          "type": "uint32"
        },
        {
          "internalType": "uint256",
          "name": "totalPledgedAmount",
          "type": "uint256"
        },
        {
          "internalType": "bool",
          "name": "isGoalMet",
          "type": "bool"
        },
        {
          "internalType": "bool",
          "name": "hasCompletedRefunds",
          "type": "bool"
        },
        {
          "internalType": "bool",
          "name": "creatorHasWithdrawnFunds",
          "type": "bool"
        }
      ],
      "stateMutability": "view",
      "type": "function"
    },
    {
      "inputs": [
        {
          "internalType": "uint32",
          "name": "",
          "type": "uint32"
        },
        {
          "internalType": "address",
          "name": "",
          "type": "address"
        }
      ],
      "name": "campaignEarlyPledgers",
      "outputs": [
        {
          "internalType": "bool",
          "name": "",
          "type": "bool"
        }
      ],
      "stateMutability": "view",
      "type": "function"
    },
    {
      "inputs": [
        {
          "internalType": "uint32",
          "name": "",
          "type": "uint32"
        },
        {
          "internalType": "address",
          "name": "",
          "type": "address"
        }
      ],
      "name": "campaignPledgerAmounts",
      "outputs": [
        {
          "internalType": "uint256",
          "name": "",
          "type": "uint256"
        }
      ],
      "stateMutability": "view",
      "type": "function"
    },
    {
      "inputs": [
        {
          "internalType": "uint32",
          "name": "",
          "type": "uint32"
        },
        {
          "internalType": "address",
          "name": "",
          "type": "address"
        }
      ],
      "name": "campaignPledgersRefunded",
      "outputs": [
        {
          "internalType": "bool",
          "name": "",
          "type": "bool"
        }
      ],
      "stateMutability": "view",
      "type": "function"
    },
    {
      "inputs": [
        {
          "internalType": "uint32",
          "name": "",
          "type": "uint32"
        }
      ],
      "name": "campaignsByID",
      "outputs": [
        {
          "internalType": "string",
          "name": "title",
          "type": "string"
        },
        {
          "internalType": "address",
          "name": "creator",
          "type": "address"
        },
        {
          "internalType": "uint256",
          "name": "targetAmount",
          "type": "uint256"
        },
        {
          "internalType": "uint256",
          "name": "refundBonus",
          "type": "uint256"
        },
        {
          "internalType": "uint256",
          "name": "campaignExpiryDate",
          "type": "uint256"
        },
        {
          "internalType": "uint32",
          "name": "maxEarlyPledgers",
          "type": "uint32"
        },
        {
          "internalType": "uint256",
          "name": "totalPledgedAmount",
          "type": "uint256"
        },
        {
          "internalType": "bool",
          "name": "isGoalMet",
          "type": "bool"
        },
        {
          "internalType": "bool",
          "name": "hasCompletedRefunds",
          "type": "bool"
        },
        {
          "internalType": "bool",
          "name": "creatorHasWithdrawnFunds",
          "type": "bool"
        }
      ],
      "stateMutability": "view",
      "type": "function"
    },
    {
      "inputs": [
        {
          "internalType": "string",
          "name": "_title",
          "type": "string"
        },
        {
          "internalType": "uint256",
          "name": "_targetAmount",
          "type": "uint256"
        },
        {
          "internalType": "uint256",
          "name": "_refundBonus",
          "type": "uint256"
        },
        {
          "internalType": "uint256",
          "name": "_campaignLengthInDays",
          "type": "uint256"
        },
        {
          "internalType": "uint32",
          "name": "_maxEarlyPledgers",
          "type": "uint32"
        }
      ],
      "name": "createCampaign",
      "outputs": [
        {
          "internalType": "uint32",
          "name": "",
          "type": "uint32"
        }
      ],
      "stateMutability": "payable",
      "type": "function"
    },
    {
      "inputs": [
        {
          "internalType": "address",
          "name": "",
          "type": "address"
        }
      ],
      "name": "creatorToCampaign",
      "outputs": [
        {
          "internalType": "string",
          "name": "title",
          "type": "string"
        },
        {
          "internalType": "address",
          "name": "creator",
          "type": "address"
        },
        {
          "internalType": "uint256",
          "name": "targetAmount",
          "type": "uint256"
        },
        {
          "internalType": "uint256",
          "name": "refundBonus",
          "type": "uint256"
        },
        {
          "internalType": "uint256",
          "name": "campaignExpiryDate",
          "type": "uint256"
        },
        {
          "internalType": "uint32",
          "name": "maxEarlyPledgers",
          "type": "uint32"
        },
        {
          "internalType": "uint256",
          "name": "totalPledgedAmount",
          "type": "uint256"
        },
        {
          "internalType": "bool",
          "name": "isGoalMet",
          "type": "bool"
        },
        {
          "internalType": "bool",
          "name": "hasCompletedRefunds",
          "type": "bool"
        },
        {
          "internalType": "bool",
          "name": "creatorHasWithdrawnFunds",
          "type": "bool"
        }
      ],
      "stateMutability": "view",
      "type": "function"
    },
    {
      "inputs": [
        {
          "internalType": "uint32",
          "name": "id",
          "type": "uint32"
        },
        {
          "internalType": "address payable",
          "name": "receivingAddress",
          "type": "address"
        }
      ],
      "name": "creatorWithdrawal",
      "outputs": [],
      "stateMutability": "payable",
      "type": "function"
    },
    {
      "inputs": [
        {
          "internalType": "uint32",
          "name": "id",
          "type": "uint32"
        }
      ],
      "name": "earlyRefundCalc",
      "outputs": [
        {
          "internalType": "uint256",
          "name": "",
          "type": "uint256"
        }
      ],
      "stateMutability": "view",
      "type": "function"
    },
    {
      "inputs": [],
      "name": "getAddress",
      "outputs": [
        {
          "internalType": "address",
          "name": "",
          "type": "address"
        }
      ],
      "stateMutability": "view",
      "type": "function"
    },
    {
      "inputs": [
        {
          "internalType": "uint32",
          "name": "id",
          "type": "uint32"
        },
        {
          "internalType": "address",
          "name": "addy",
          "type": "address"
        }
      ],
      "name": "getAmountPledged",
      "outputs": [
        {
          "internalType": "uint256",
          "name": "",
          "type": "uint256"
        }
      ],
      "stateMutability": "view",
      "type": "function"
    },
    {
      "inputs": [],
      "name": "getBalance",
      "outputs": [
        {
          "internalType": "uint256",
          "name": "",
          "type": "uint256"
        }
      ],
      "stateMutability": "view",
      "type": "function"
    },
    {
      "inputs": [],
      "name": "getCampaignCount",
      "outputs": [
        {
          "internalType": "uint256",
          "name": "",
          "type": "uint256"
        }
      ],
      "stateMutability": "view",
      "type": "function"
    },
    {
      "inputs": [
        {
          "internalType": "uint32",
          "name": "id",
          "type": "uint32"
        }
      ],
      "name": "getCampaignEarlyPledgers",
      "outputs": [
        {
          "internalType": "address[]",
          "name": "",
          "type": "address[]"
        }
      ],
      "stateMutability": "view",
      "type": "function"
    },
    {
      "inputs": [
        {
          "internalType": "uint32",
          "name": "id",
          "type": "uint32"
        }
      ],
      "name": "getCampaignFundingStatus",
      "outputs": [
        {
          "internalType": "uint256",
          "name": "",
          "type": "uint256"
        },
        {
          "internalType": "uint256",
          "name": "",
          "type": "uint256"
        },
        {
          "internalType": "bool",
          "name": "",
          "type": "bool"
        },
        {
          "internalType": "bool",
          "name": "",
          "type": "bool"
        }
      ],
      "stateMutability": "view",
      "type": "function"
    },
    {
      "inputs": [
        {
          "internalType": "uint32",
          "name": "id",
          "type": "uint32"
        }
      ],
      "name": "getCampaignInfo",
      "outputs": [
        {
          "internalType": "string",
          "name": "",
          "type": "string"
        },
        {
          "internalType": "address",
          "name": "",
          "type": "address"
        },
        {
          "internalType": "uint256",
          "name": "",
          "type": "uint256"
        },
        {
          "internalType": "uint256",
          "name": "",
          "type": "uint256"
        },
        {
          "internalType": "uint256",
          "name": "",
          "type": "uint256"
        },
        {
          "internalType": "uint32",
          "name": "",
          "type": "uint32"
        }
      ],
      "stateMutability": "view",
      "type": "function"
    },
    {
      "inputs": [
        {
          "internalType": "uint32",
          "name": "id",
          "type": "uint32"
        }
      ],
      "name": "getCampaignPledgers",
      "outputs": [
        {
          "internalType": "address[]",
          "name": "",
          "type": "address[]"
        }
      ],
      "stateMutability": "view",
      "type": "function"
    },
    {
      "inputs": [
        {
          "internalType": "uint32",
          "name": "id",
          "type": "uint32"
        }
      ],
      "name": "getCampaignRefundStatus",
      "outputs": [
        {
          "internalType": "uint256",
          "name": "",
          "type": "uint256"
        },
        {
          "internalType": "uint256",
          "name": "",
          "type": "uint256"
        },
        {
          "internalType": "address[]",
          "name": "",
          "type": "address[]"
        },
        {
          "internalType": "bool",
          "name": "",
          "type": "bool"
        }
      ],
      "stateMutability": "view",
      "type": "function"
    },
    {
      "inputs": [],
      "name": "owner",
      "outputs": [
        {
          "internalType": "address",
          "name": "",
          "type": "address"
        }
      ],
      "stateMutability": "view",
      "type": "function"
    },
    {
      "inputs": [
        {
          "internalType": "uint32",
          "name": "id",
          "type": "uint32"
        }
      ],
      "name": "pledge",
      "outputs": [],
      "stateMutability": "payable",
      "type": "function"
    },
    {
      "inputs": [],
      "name": "renounceOwnership",
      "outputs": [],
      "stateMutability": "nonpayable",
      "type": "function"
    },
    {
      "inputs": [
        {
          "internalType": "address",
          "name": "newOwner",
          "type": "address"
        }
      ],
      "name": "transferOwnership",
      "outputs": [],
      "stateMutability": "nonpayable",
      "type": "function"
    },
    {
      "inputs": [
        {
          "internalType": "uint32",
          "name": "id",
          "type": "uint32"
        }
      ],
      "name": "withdrawRefund",
      "outputs": [],
      "stateMutability": "payable",
      "type": "function"
    },
    {
      "stateMutability": "payable",
      "type": "receive"
    }
  ],
  "bytecode": "0x60806040523480156200001157600080fd5b5062000032620000266200003f60201b60201c565b6200004760201b60201c565b600180819055506200010b565b600033905090565b60008060009054906101000a900473ffffffffffffffffffffffffffffffffffffffff169050816000806101000a81548173ffffffffffffffffffffffffffffffffffffffff021916908373ffffffffffffffffffffffffffffffffffffffff1602179055508173ffffffffffffffffffffffffffffffffffffffff168173ffffffffffffffffffffffffffffffffffffffff167f8be0079c531659141344cd1fd0a4f28419497f9722a3daafe3b4186f6b6457e060405160405180910390a35050565b613e2f806200011b6000396000f3fe6080604052600436106101445760003560e01c80639c4571a7116100b6578063bf1858e41161006f578063bf1858e4146104d8578063d0bdcaee146104f4578063da708a6614610534578063e09e4dc314610550578063f2fde38b1461058d578063fb2388ef146105b65761014b565b80639c4571a71461037f578063a052bcec146103bc578063a509f4d1146103d8578063af29ef8b1461041e578063af8f64f31461045b578063be25281c146104985761014b565b80634bc8406a116101085780634bc8406a146102685780635a3581ed146102a5578063611e0e81146102e25780636caa921814610312578063715018a61461033d5780638da5cb5b146103545761014b565b80630ab320a11461014d57806312065fe014610193578063303fe61f146101be578063350a87b91461020057806338cc48311461023d5761014b565b3661014b57005b005b34801561015957600080fd5b50610174600480360381019061016f9190612d66565b6105fc565b60405161018a9a99989796959493929190612ea7565b60405180910390f35b34801561019f57600080fd5b506101a861072f565b6040516101b59190612f4a565b60405180910390f35b3480156101ca57600080fd5b506101e560048036038101906101e09190612d66565b610737565b6040516101f796959493929190612f65565b60405180910390f35b34801561020c57600080fd5b5061022760048036038101906102229190612ff9565b6108e3565b6040516102349190612f4a565b60405180910390f35b34801561024957600080fd5b5061025261094f565b60405161025f9190613039565b60405180910390f35b34801561027457600080fd5b5061028f600480360381019061028a9190612d66565b610957565b60405161029c9190613112565b60405180910390f35b3480156102b157600080fd5b506102cc60048036038101906102c79190612d66565b610a07565b6040516102d99190612f4a565b60405180910390f35b6102fc60048036038101906102f791906131c5565b610af4565b604051610309919061325f565b60405180910390f35b34801561031e57600080fd5b506103276111bc565b6040516103349190612f4a565b60405180910390f35b34801561034957600080fd5b506103526111c9565b005b34801561036057600080fd5b506103696111dd565b6040516103769190613039565b60405180910390f35b34801561038b57600080fd5b506103a660048036038101906103a19190612ff9565b611206565b6040516103b3919061327a565b60405180910390f35b6103d660048036038101906103d19190612d66565b611235565b005b3480156103e457600080fd5b506103ff60048036038101906103fa9190613295565b6117be565b6040516104159a99989796959493929190612ea7565b60405180910390f35b34801561042a57600080fd5b5061044560048036038101906104409190612ff9565b611901565b604051610452919061327a565b60405180910390f35b34801561046757600080fd5b50610482600480360381019061047d9190612d66565b611930565b60405161048f9190613112565b60405180910390f35b3480156104a457600080fd5b506104bf60048036038101906104ba9190612d66565b6119e0565b6040516104cf94939291906132c2565b60405180910390f35b6104f260048036038101906104ed919061334c565b611deb565b005b34801561050057600080fd5b5061051b60048036038101906105169190612d66565b612107565b60405161052b949392919061338c565b60405180910390f35b61054e60048036038101906105499190612d66565b612201565b005b34801561055c57600080fd5b5061057760048036038101906105729190612ff9565b6128fc565b6040516105849190612f4a565b60405180910390f35b34801561059957600080fd5b506105b460048036038101906105af91906133d1565b612921565b005b3480156105c257600080fd5b506105dd60048036038101906105d891906133d1565b6129a4565b6040516105f39a99989796959493929190612ea7565b60405180910390f35b600360205280600052604060002060009150905080600001805461061f9061342d565b80601f016020809104026020016040519081016040528092919081815260200182805461064b9061342d565b80156106985780601f1061066d57610100808354040283529160200191610698565b820191906000526020600020905b81548152906001019060200180831161067b57829003601f168201915b5050505050908060010160009054906101000a900473ffffffffffffffffffffffffffffffffffffffff16908060020154908060030154908060040154908060050160009054906101000a900463ffffffff16908060080154908060090160009054906101000a900460ff16908060090160019054906101000a900460ff16908060090160029054906101000a900460ff1690508a565b600047905090565b60606000806000806000600360008863ffffffff1663ffffffff168152602001908152602001600020600001600360008963ffffffff1663ffffffff16815260200190815260200160002060010160009054906101000a900473ffffffffffffffffffffffffffffffffffffffff16600360008a63ffffffff1663ffffffff16815260200190815260200160002060020154600360008b63ffffffff1663ffffffff16815260200190815260200160002060030154600360008c63ffffffff1663ffffffff16815260200190815260200160002060040154600360008d63ffffffff1663ffffffff16815260200190815260200160002060050160009054906101000a900463ffffffff1685805461084e9061342d565b80601f016020809104026020016040519081016040528092919081815260200182805461087a9061342d565b80156108c75780601f1061089c576101008083540402835291602001916108c7565b820191906000526020600020905b8154815290600101906020018083116108aa57829003601f168201915b5050505050955095509550955095509550955091939550919395565b600080600560008563ffffffff1663ffffffff16815260200190815260200160002060008473ffffffffffffffffffffffffffffffffffffffff1673ffffffffffffffffffffffffffffffffffffffff1681526020019081526020016000205490508091505092915050565b600030905090565b6060600360008363ffffffff1663ffffffff1681526020019081526020016000206007018054806020026020016040519081016040528092919081815260200182805480156109fb57602002820191906000526020600020905b8160009054906101000a900473ffffffffffffffffffffffffffffffffffffffff1673ffffffffffffffffffffffffffffffffffffffff16815260200190600101908083116109b1575b50505050509050919050565b600080600360008463ffffffff1663ffffffff1681526020019081526020016000206006018054905090506000600360008563ffffffff1663ffffffff16815260200190815260200160002060050160009054906101000a900463ffffffff1663ffffffff168261ffff1611610a81578161ffff16610ab5565b600360008563ffffffff1663ffffffff16815260200190815260200160002060050160009054906101000a900463ffffffff165b63ffffffff16600360008663ffffffff1663ffffffff16815260200190815260200160002060030154610ae891906134bc565b90508092505050919050565b6000838511610b38576040517f08c379a0000000000000000000000000000000000000000000000000000000008152600401610b2f9061355f565b60405180910390fd5b833414610b7a576040517f08c379a0000000000000000000000000000000000000000000000000000000008152600401610b71906135f1565b60405180910390fd5b60006201518084610b8b9190613611565b42610b969190613653565b905060006040518061018001604052808a8a8080601f016020809104026020016040519081016040528093929190818152602001838380828437600081840152601f19601f8201169050808301925050505050505081526020013373ffffffffffffffffffffffffffffffffffffffff1681526020018881526020018781526020018381526020018563ffffffff168152602001600067ffffffffffffffff811115610c4557610c44613687565b5b604051908082528060200260200182016040528015610c735781602001602082028036833780820191505090505b508152602001600067ffffffffffffffff811115610c9457610c93613687565b5b604051908082528060200260200182016040528015610cc25781602001602082028036833780820191505090505b508152602001600081526020016000151581526020016000151581526020016000151581525090506000600280549050905060028290806001815401808255809150506001900390600052602060002090600a02016000909190919091506000820151816000019081610d359190613862565b5060208201518160010160006101000a81548173ffffffffffffffffffffffffffffffffffffffff021916908373ffffffffffffffffffffffffffffffffffffffff16021790555060408201518160020155606082015181600301556080820151816004015560a08201518160050160006101000a81548163ffffffff021916908363ffffffff16021790555060c0820151816006019080519060200190610dde929190612c79565b5060e0820151816007019080519060200190610dfb929190612c79565b5061010082015181600801556101208201518160090160006101000a81548160ff0219169083151502179055506101408201518160090160016101000a81548160ff0219169083151502179055506101608201518160090160026101000a81548160ff021916908315150217905550505081600360008363ffffffff1663ffffffff1681526020019081526020016000206000820151816000019081610ea19190613862565b5060208201518160010160006101000a81548173ffffffffffffffffffffffffffffffffffffffff021916908373ffffffffffffffffffffffffffffffffffffffff16021790555060408201518160020155606082015181600301556080820151816004015560a08201518160050160006101000a81548163ffffffff021916908363ffffffff16021790555060c0820151816006019080519060200190610f4a929190612c79565b5060e0820151816007019080519060200190610f67929190612c79565b5061010082015181600801556101208201518160090160006101000a81548160ff0219169083151502179055506101408201518160090160016101000a81548160ff0219169083151502179055506101608201518160090160026101000a81548160ff02191690831515021790555090505081600460003373ffffffffffffffffffffffffffffffffffffffff1673ffffffffffffffffffffffffffffffffffffffff168152602001908152602001600020600082015181600001908161102e9190613862565b5060208201518160010160006101000a81548173ffffffffffffffffffffffffffffffffffffffff021916908373ffffffffffffffffffffffffffffffffffffffff16021790555060408201518160020155606082015181600301556080820151816004015560a08201518160050160006101000a81548163ffffffff021916908363ffffffff16021790555060c08201518160060190805190602001906110d7929190612c79565b5060e08201518160070190805190602001906110f4929190612c79565b5061010082015181600801556101208201518160090160006101000a81548160ff0219169083151502179055506101408201518160090160016101000a81548160ff0219169083151502179055506101608201518160090160026101000a81548160ff0219169083151502179055509050508063ffffffff167f038bb5475f6e194732cf40c245df8ccf588cda49f6aae848ac7552c22f8b93a1338a8a878a6040516111a4959493929190613934565b60405180910390a28093505050509695505050505050565b6000600280549050905090565b6111d1612ad7565b6111db6000612b55565b565b60008060009054906101000a900473ffffffffffffffffffffffffffffffffffffffff16905090565b60066020528160005260406000206020528060005260406000206000915091509054906101000a900460ff1681565b6000600280549050118015611260575060016002805490506112579190613987565b8163ffffffff16115b15611297576040517f6ca1fc2800000000000000000000000000000000000000000000000000000000815260040160405180910390fd5b600360008263ffffffff1663ffffffff168152602001908152602001600020600401544211156112f3576040517fb91eaa5400000000000000000000000000000000000000000000000000000000815260040160405180910390fd5b60011515600360008363ffffffff1663ffffffff16815260200190815260200160002060090160009054906101000a900460ff16151503611360576040517f6721972000000000000000000000000000000000000000000000000000000000815260040160405180910390fd5b6000340361139a576040517fc3dda1d700000000000000000000000000000000000000000000000000000000815260040160405180910390fd5b60001515600660008363ffffffff1663ffffffff16815260200190815260200160002060003373ffffffffffffffffffffffffffffffffffffffff1673ffffffffffffffffffffffffffffffffffffffff16815260200190815260200160002060009054906101000a900460ff1615151480156114735750600360008263ffffffff1663ffffffff16815260200190815260200160002060050160009054906101000a900463ffffffff1663ffffffff16600360008363ffffffff1663ffffffff16815260200190815260200160002060060180549050105b15611571576001600660008363ffffffff1663ffffffff16815260200190815260200160002060003373ffffffffffffffffffffffffffffffffffffffff1673ffffffffffffffffffffffffffffffffffffffff16815260200190815260200160002060006101000a81548160ff021916908315150217905550600360008263ffffffff1663ffffffff168152602001908152602001600020600701339080600181540180825580915050600190039060005260206000200160009091909190916101000a81548173ffffffffffffffffffffffffffffffffffffffff021916908373ffffffffffffffffffffffffffffffffffffffff1602179055505b34600560008363ffffffff1663ffffffff16815260200190815260200160002060003373ffffffffffffffffffffffffffffffffffffffff1673ffffffffffffffffffffffffffffffffffffffff16815260200190815260200160002060008282546115dd9190613653565b9250508190555034600360008363ffffffff1663ffffffff16815260200190815260200160002060080160008282546116169190613653565b92505081905550600360008263ffffffff1663ffffffff168152602001908152602001600020600601339080600181540180825580915050600190039060005260206000200160009091909190916101000a81548173ffffffffffffffffffffffffffffffffffffffff021916908373ffffffffffffffffffffffffffffffffffffffff1602179055507f921a2ec2a495b3244e803895a5f5481d303302aff750e1f14880c7a0c28edd843382346040516116d3939291906139ec565b60405180910390a1600360008263ffffffff1663ffffffff16815260200190815260200160002060020154600360008363ffffffff1663ffffffff16815260200190815260200160002060080154106117bb576001600360008363ffffffff1663ffffffff16815260200190815260200160002060090160006101000a81548160ff0219169083151502179055507fc16fed8679f5abfb1e8e444da3214d318e55ced535c7f27ebabf3ff3540ad181600360008363ffffffff1663ffffffff168152602001908152602001600020600801546040516117b29190612f4a565b60405180910390a15b50565b600281815481106117ce57600080fd5b90600052602060002090600a02016000915090508060000180546117f19061342d565b80601f016020809104026020016040519081016040528092919081815260200182805461181d9061342d565b801561186a5780601f1061183f5761010080835404028352916020019161186a565b820191906000526020600020905b81548152906001019060200180831161184d57829003601f168201915b5050505050908060010160009054906101000a900473ffffffffffffffffffffffffffffffffffffffff16908060020154908060030154908060040154908060050160009054906101000a900463ffffffff16908060080154908060090160009054906101000a900460ff16908060090160019054906101000a900460ff16908060090160029054906101000a900460ff1690508a565b60076020528160005260406000206020528060005260406000206000915091509054906101000a900460ff1681565b6060600360008363ffffffff1663ffffffff1681526020019081526020016000206006018054806020026020016040519081016040528092919081815260200182805480156119d457602002820191906000526020600020905b8160009054906101000a900473ffffffffffffffffffffffffffffffffffffffff1673ffffffffffffffffffffffffffffffffffffffff168152602001906001019080831161198a575b50505050509050919050565b6000806060600080600360008763ffffffff1663ffffffff168152602001908152602001600020600601805480602002602001604051908101604052809291908181526020018280548015611a8a57602002820191906000526020600020905b8160009054906101000a900473ffffffffffffffffffffffffffffffffffffffff1673ffffffffffffffffffffffffffffffffffffffff1681526020019060010190808311611a40575b505050505090506000815111611ad5576040517f08c379a0000000000000000000000000000000000000000000000000000000008152600401611acc90613a6f565b60405180910390fd5b60606000805b83518263ffffffff161015611d33576000600560008b63ffffffff1663ffffffff1681526020019081526020016000206000868563ffffffff1681518110611b2657611b25613a8f565b5b602002602001015173ffffffffffffffffffffffffffffffffffffffff1673ffffffffffffffffffffffffffffffffffffffff168152602001908152602001600020541115611c6e57838263ffffffff1681518110611b8857611b87613a8f565b5b6020026020010151838363ffffffff1681518110611ba957611ba8613a8f565b5b602002602001019073ffffffffffffffffffffffffffffffffffffffff16908173ffffffffffffffffffffffffffffffffffffffff1681525050600560008a63ffffffff1663ffffffff1681526020019081526020016000206000858463ffffffff1681518110611c1d57611c1c613a8f565b5b602002602001015173ffffffffffffffffffffffffffffffffffffffff1673ffffffffffffffffffffffffffffffffffffffff1681526020019081526020016000205481611c6b9190613653565b90505b60011515600660008b63ffffffff1663ffffffff1681526020019081526020016000206000868563ffffffff1681518110611cac57611cab613a8f565b5b602002602001015173ffffffffffffffffffffffffffffffffffffffff1673ffffffffffffffffffffffffffffffffffffffff16815260200190815260200160002060009054906101000a900460ff16151503611d20576000611d0e8a610a07565b90508082611d1c9190613653565b9150505b8180611d2b90613abe565b925050611adb565b600081600360008c63ffffffff1663ffffffff16815260200190815260200160002060080154611d639190613987565b90506000600360008c63ffffffff1663ffffffff16815260200190815260200160002060080154826064611d979190613611565b611da191906134bc565b9050818186600360008f63ffffffff1663ffffffff16815260200190815260200160002060090160019054906101000a900460ff1699509950995099505050505050509193509193565b600360008363ffffffff1663ffffffff16815260200190815260200160002060010160009054906101000a900473ffffffffffffffffffffffffffffffffffffffff1673ffffffffffffffffffffffffffffffffffffffff163373ffffffffffffffffffffffffffffffffffffffff1614611e92576040517f433b56a700000000000000000000000000000000000000000000000000000000815260040160405180910390fd5b60011515600360008463ffffffff1663ffffffff16815260200190815260200160002060090160009054906101000a900460ff16151514611eff576040517fe54261a900000000000000000000000000000000000000000000000000000000815260040160405180910390fd5b600360008363ffffffff1663ffffffff16815260200190815260200160002060090160029054906101000a900460ff1615611f66576040517f6507689f00000000000000000000000000000000000000000000000000000000815260040160405180910390fd5b600360008363ffffffff1663ffffffff16815260200190815260200160002060080154471015611fc2576040517f356680b700000000000000000000000000000000000000000000000000000000815260040160405180910390fd5b6001600360008463ffffffff1663ffffffff16815260200190815260200160002060090160026101000a81548160ff02191690831515021790555060008173ffffffffffffffffffffffffffffffffffffffff16600360008563ffffffff1663ffffffff1681526020019081526020016000206008015460405161204590613b1b565b60006040518083038185875af1925050503d8060008114612082576040519150601f19603f3d011682016040523d82523d6000602084013e612087565b606091505b50509050806120cb576040517f08c379a00000000000000000000000000000000000000000000000000000000081526004016120c290613ba2565b60405180910390fd5b7fc48cbdd5695711287d6c892e620581d6bd62e9557f1cdda3af90d174daffb558826040516120fa9190613bd1565b60405180910390a1505050565b6000806000806000600360008763ffffffff1663ffffffff16815260200190815260200160002060020154600360008863ffffffff1663ffffffff1681526020019081526020016000206008015460646121619190613611565b61216b91906134bc565b9050600360008763ffffffff1663ffffffff1681526020019081526020016000206008015481600360008963ffffffff1663ffffffff16815260200190815260200160002060090160009054906101000a900460ff16600360008a63ffffffff1663ffffffff16815260200190815260200160002060090160029054906101000a900460ff169450945094509450509193509193565b612209612c19565b600360008263ffffffff1663ffffffff16815260200190815260200160002060040154421015612265576040517f2b7ace4a00000000000000000000000000000000000000000000000000000000815260040160405180910390fd5b600760008263ffffffff1663ffffffff16815260200190815260200160002060003373ffffffffffffffffffffffffffffffffffffffff1673ffffffffffffffffffffffffffffffffffffffff16815260200190815260200160002060009054906101000a900460ff1615612306576040517f6507689f00000000000000000000000000000000000000000000000000000000815260040160405180910390fd5b6000600560008363ffffffff1663ffffffff16815260200190815260200160002060003373ffffffffffffffffffffffffffffffffffffffff1673ffffffffffffffffffffffffffffffffffffffff168152602001908152602001600020540361239c576040517f614a882800000000000000000000000000000000000000000000000000000000815260040160405180910390fd5b60011515600360008363ffffffff1663ffffffff16815260200190815260200160002060090160009054906101000a900460ff16151503612409576040517f6721972000000000000000000000000000000000000000000000000000000000815260040160405180910390fd5b6000600560008363ffffffff1663ffffffff16815260200190815260200160002060003373ffffffffffffffffffffffffffffffffffffffff1673ffffffffffffffffffffffffffffffffffffffff168152602001908152602001600020549050600660008363ffffffff1663ffffffff16815260200190815260200160002060003373ffffffffffffffffffffffffffffffffffffffff1673ffffffffffffffffffffffffffffffffffffffff16815260200190815260200160002060009054906101000a900460ff16156126f65760006124e483610a07565b9050600082826124f49190613653565b905080471015612530576040517f356680b700000000000000000000000000000000000000000000000000000000815260040160405180910390fd5b6000600560008663ffffffff1663ffffffff16815260200190815260200160002060003373ffffffffffffffffffffffffffffffffffffffff1673ffffffffffffffffffffffffffffffffffffffff168152602001908152602001600020819055506001600760008663ffffffff1663ffffffff16815260200190815260200160002060003373ffffffffffffffffffffffffffffffffffffffff1673ffffffffffffffffffffffffffffffffffffffff16815260200190815260200160002060006101000a81548160ff02191690831515021790555060003373ffffffffffffffffffffffffffffffffffffffff168260405161262d90613b1b565b60006040518083038185875af1925050503d806000811461266a576040519150601f19603f3d011682016040523d82523d6000602084013e61266f565b606091505b50509050806126b3576040517f08c379a00000000000000000000000000000000000000000000000000000000081526004016126aa90613c38565b60405180910390fd5b7fcf754acd089cac012df2b5eef4facb2b8a87f0f49976a45144ac4cbde28848cc8533846040516126e693929190613c58565b60405180910390a15050506128f0565b80471015612730576040517f356680b700000000000000000000000000000000000000000000000000000000815260040160405180910390fd5b6000600560008463ffffffff1663ffffffff16815260200190815260200160002060003373ffffffffffffffffffffffffffffffffffffffff1673ffffffffffffffffffffffffffffffffffffffff168152602001908152602001600020819055506001600760008463ffffffff1663ffffffff16815260200190815260200160002060003373ffffffffffffffffffffffffffffffffffffffff1673ffffffffffffffffffffffffffffffffffffffff16815260200190815260200160002060006101000a81548160ff02191690831515021790555060003373ffffffffffffffffffffffffffffffffffffffff168260405161282d90613b1b565b60006040518083038185875af1925050503d806000811461286a576040519150601f19603f3d011682016040523d82523d6000602084013e61286f565b606091505b50509050806128b3576040517f08c379a00000000000000000000000000000000000000000000000000000000081526004016128aa90613c38565b60405180910390fd5b7fcf754acd089cac012df2b5eef4facb2b8a87f0f49976a45144ac4cbde28848cc8333846040516128e693929190613c58565b60405180910390a1505b506128f9612c68565b50565b6005602052816000526040600020602052806000526040600020600091509150505481565b612929612ad7565b600073ffffffffffffffffffffffffffffffffffffffff168173ffffffffffffffffffffffffffffffffffffffff1603612998576040517f08c379a000000000000000000000000000000000000000000000000000000000815260040161298f90613d01565b60405180910390fd5b6129a181612b55565b50565b60046020528060005260406000206000915090508060000180546129c79061342d565b80601f01602080910402602001604051908101604052809291908181526020018280546129f39061342d565b8015612a405780601f10612a1557610100808354040283529160200191612a40565b820191906000526020600020905b815481529060010190602001808311612a2357829003601f168201915b5050505050908060010160009054906101000a900473ffffffffffffffffffffffffffffffffffffffff16908060020154908060030154908060040154908060050160009054906101000a900463ffffffff16908060080154908060090160009054906101000a900460ff16908060090160019054906101000a900460ff16908060090160029054906101000a900460ff1690508a565b612adf612c71565b73ffffffffffffffffffffffffffffffffffffffff16612afd6111dd565b73ffffffffffffffffffffffffffffffffffffffff1614612b53576040517f08c379a0000000000000000000000000000000000000000000000000000000008152600401612b4a90613d6d565b60405180910390fd5b565b60008060009054906101000a900473ffffffffffffffffffffffffffffffffffffffff169050816000806101000a81548173ffffffffffffffffffffffffffffffffffffffff021916908373ffffffffffffffffffffffffffffffffffffffff1602179055508173ffffffffffffffffffffffffffffffffffffffff168173ffffffffffffffffffffffffffffffffffffffff167f8be0079c531659141344cd1fd0a4f28419497f9722a3daafe3b4186f6b6457e060405160405180910390a35050565b600260015403612c5e576040517f08c379a0000000000000000000000000000000000000000000000000000000008152600401612c5590613dd9565b60405180910390fd5b6002600181905550565b60018081905550565b600033905090565b828054828255906000526020600020908101928215612cf2579160200282015b82811115612cf15782518260006101000a81548173ffffffffffffffffffffffffffffffffffffffff021916908373ffffffffffffffffffffffffffffffffffffffff16021790555091602001919060010190612c99565b5b509050612cff9190612d03565b5090565b5b80821115612d1c576000816000905550600101612d04565b5090565b600080fd5b600080fd5b600063ffffffff82169050919050565b612d4381612d2a565b8114612d4e57600080fd5b50565b600081359050612d6081612d3a565b92915050565b600060208284031215612d7c57612d7b612d20565b5b6000612d8a84828501612d51565b91505092915050565b600081519050919050565b600082825260208201905092915050565b60005b83811015612dcd578082015181840152602081019050612db2565b60008484015250505050565b6000601f19601f8301169050919050565b6000612df582612d93565b612dff8185612d9e565b9350612e0f818560208601612daf565b612e1881612dd9565b840191505092915050565b600073ffffffffffffffffffffffffffffffffffffffff82169050919050565b6000612e4e82612e23565b9050919050565b612e5e81612e43565b82525050565b6000819050919050565b612e7781612e64565b82525050565b612e8681612d2a565b82525050565b60008115159050919050565b612ea181612e8c565b82525050565b6000610140820190508181036000830152612ec2818d612dea565b9050612ed1602083018c612e55565b612ede604083018b612e6e565b612eeb606083018a612e6e565b612ef86080830189612e6e565b612f0560a0830188612e7d565b612f1260c0830187612e6e565b612f1f60e0830186612e98565b612f2d610100830185612e98565b612f3b610120830184612e98565b9b9a5050505050505050505050565b6000602082019050612f5f6000830184612e6e565b92915050565b600060c0820190508181036000830152612f7f8189612dea565b9050612f8e6020830188612e55565b612f9b6040830187612e6e565b612fa86060830186612e6e565b612fb56080830185612e6e565b612fc260a0830184612e7d565b979650505050505050565b612fd681612e43565b8114612fe157600080fd5b50565b600081359050612ff381612fcd565b92915050565b600080604083850312156130105761300f612d20565b5b600061301e85828601612d51565b925050602061302f85828601612fe4565b9150509250929050565b600060208201905061304e6000830184612e55565b92915050565b600081519050919050565b600082825260208201905092915050565b6000819050602082019050919050565b61308981612e43565b82525050565b600061309b8383613080565b60208301905092915050565b6000602082019050919050565b60006130bf82613054565b6130c9818561305f565b93506130d483613070565b8060005b838110156131055781516130ec888261308f565b97506130f7836130a7565b9250506001810190506130d8565b5085935050505092915050565b6000602082019050818103600083015261312c81846130b4565b905092915050565b600080fd5b600080fd5b600080fd5b60008083601f84011261315957613158613134565b5b8235905067ffffffffffffffff81111561317657613175613139565b5b6020830191508360018202830111156131925761319161313e565b5b9250929050565b6131a281612e64565b81146131ad57600080fd5b50565b6000813590506131bf81613199565b92915050565b60008060008060008060a087890312156131e2576131e1612d20565b5b600087013567ffffffffffffffff811115613200576131ff612d25565b5b61320c89828a01613143565b9650965050602061321f89828a016131b0565b945050604061323089828a016131b0565b935050606061324189828a016131b0565b925050608061325289828a01612d51565b9150509295509295509295565b60006020820190506132746000830184612e7d565b92915050565b600060208201905061328f6000830184612e98565b92915050565b6000602082840312156132ab576132aa612d20565b5b60006132b9848285016131b0565b91505092915050565b60006080820190506132d76000830187612e6e565b6132e46020830186612e6e565b81810360408301526132f681856130b4565b90506133056060830184612e98565b95945050505050565b600061331982612e23565b9050919050565b6133298161330e565b811461333457600080fd5b50565b60008135905061334681613320565b92915050565b6000806040838503121561336357613362612d20565b5b600061337185828601612d51565b925050602061338285828601613337565b9150509250929050565b60006080820190506133a16000830187612e6e565b6133ae6020830186612e6e565b6133bb6040830185612e98565b6133c86060830184612e98565b95945050505050565b6000602082840312156133e7576133e6612d20565b5b60006133f584828501612fe4565b91505092915050565b7f4e487b7100000000000000000000000000000000000000000000000000000000600052602260045260246000fd5b6000600282049050600182168061344557607f821691505b602082108103613458576134576133fe565b5b50919050565b7f4e487b7100000000000000000000000000000000000000000000000000000000600052601260045260246000fd5b7f4e487b7100000000000000000000000000000000000000000000000000000000600052601160045260246000fd5b60006134c782612e64565b91506134d283612e64565b9250826134e2576134e161345e565b5b828204905092915050565b7f43616d706169676e20676f616c206d757374206265206772656174657220746860008201527f616e20626f6e75732e0000000000000000000000000000000000000000000000602082015250565b6000613549602983612d9e565b9150613554826134ed565b604082019050919050565b600060208201905081810360008301526135788161353c565b9050919050565b7f46756e64732073656e7420746f20636f6e7472616374206d757374206571756160008201527f6c20726566756e6420626f6e757320616d6f756e742e00000000000000000000602082015250565b60006135db603683612d9e565b91506135e68261357f565b604082019050919050565b6000602082019050818103600083015261360a816135ce565b9050919050565b600061361c82612e64565b915061362783612e64565b925082820261363581612e64565b9150828204841483151761364c5761364b61348d565b5b5092915050565b600061365e82612e64565b915061366983612e64565b92508282019050808211156136815761368061348d565b5b92915050565b7f4e487b7100000000000000000000000000000000000000000000000000000000600052604160045260246000fd5b60008190508160005260206000209050919050565b60006020601f8301049050919050565b600082821b905092915050565b6000600883026137187fffffffffffffffffffffffffffffffffffffffffffffffffffffffffffffffff826136db565b61372286836136db565b95508019841693508086168417925050509392505050565b6000819050919050565b600061375f61375a61375584612e64565b61373a565b612e64565b9050919050565b6000819050919050565b61377983613744565b61378d61378582613766565b8484546136e8565b825550505050565b600090565b6137a2613795565b6137ad818484613770565b505050565b5b818110156137d1576137c660008261379a565b6001810190506137b3565b5050565b601f821115613816576137e7816136b6565b6137f0846136cb565b810160208510156137ff578190505b61381361380b856136cb565b8301826137b2565b50505b505050565b600082821c905092915050565b60006138396000198460080261381b565b1980831691505092915050565b60006138528383613828565b9150826002028217905092915050565b61386b82612d93565b67ffffffffffffffff81111561388457613883613687565b5b61388e825461342d565b6138998282856137d5565b600060209050601f8311600181146138cc57600084156138ba578287015190505b6138c48582613846565b86555061392c565b601f1984166138da866136b6565b60005b82811015613902578489015182556001820191506020850194506020810190506138dd565b8683101561391f578489015161391b601f891682613828565b8355505b6001600288020188555050505b505050505050565b600060a0820190506139496000830188612e55565b6139566020830187612e6e565b6139636040830186612e6e565b6139706060830185612e6e565b61397d6080830184612e7d565b9695505050505050565b600061399282612e64565b915061399d83612e64565b92508282039050818111156139b5576139b461348d565b5b92915050565b60006139d66139d16139cc84612d2a565b61373a565b612e64565b9050919050565b6139e6816139bb565b82525050565b6000606082019050613a016000830186612e55565b613a0e60208301856139dd565b613a1b6040830184612e6e565b949350505050565b7f4e6f2063616d706169676e20706c656467657273207965742e00000000000000600082015250565b6000613a59601983612d9e565b9150613a6482613a23565b602082019050919050565b60006020820190508181036000830152613a8881613a4c565b9050919050565b7f4e487b7100000000000000000000000000000000000000000000000000000000600052603260045260246000fd5b6000613ac982612d2a565b915063ffffffff8203613adf57613ade61348d565b5b600182019050919050565b600081905092915050565b50565b6000613b05600083613aea565b9150613b1082613af5565b600082019050919050565b6000613b2682613af8565b9150819050919050565b7f4661696c656420746f2077697468647261772063616d706169676e2066756e6460008201527f732e000000000000000000000000000000000000000000000000000000000000602082015250565b6000613b8c602283612d9e565b9150613b9782613b30565b604082019050919050565b60006020820190508181036000830152613bbb81613b7f565b9050919050565b613bcb8161330e565b82525050565b6000602082019050613be66000830184613bc2565b92915050565b7f4661696c656420746f2073656e6420726566756e640000000000000000000000600082015250565b6000613c22601583612d9e565b9150613c2d82613bec565b602082019050919050565b60006020820190508181036000830152613c5181613c15565b9050919050565b6000606082019050613c6d6000830186612e7d565b613c7a6020830185612e55565b613c876040830184612e6e565b949350505050565b7f4f776e61626c653a206e6577206f776e657220697320746865207a65726f206160008201527f6464726573730000000000000000000000000000000000000000000000000000602082015250565b6000613ceb602683612d9e565b9150613cf682613c8f565b604082019050919050565b60006020820190508181036000830152613d1a81613cde565b9050919050565b7f4f776e61626c653a2063616c6c6572206973206e6f7420746865206f776e6572600082015250565b6000613d57602083612d9e565b9150613d6282613d21565b602082019050919050565b60006020820190508181036000830152613d8681613d4a565b9050919050565b7f5265656e7472616e637947756172643a207265656e7472616e742063616c6c00600082015250565b6000613dc3601f83612d9e565b9150613dce82613d8d565b602082019050919050565b60006020820190508181036000830152613df281613db6565b905091905056fea2646970667358221220c73ae2896ad11e84eac1493c2f6d1f546919b3abf52a34c452a1898b73f09a2d64736f6c63430008120033",
  "linkReferences": {},
  "deployedLinkReferences": {}
}