{
  "_format": "hh-sol-artifact-1",
  "contractName": "DomCrowdfund",
  "sourceName": "contracts/DomCrowdfund.sol",
  "abi": [
    {
      "inputs": [],
      "stateMutability": "nonpayable",
      "type": "constructor"
    },
    {
      "inputs": [],
      "name": "AlreadyWithdrawn",
      "type": "error"
    },
    {
      "inputs": [],
      "name": "CallerIsNotAPledger",
      "type": "error"
    },
    {
      "inputs": [],
      "name": "CallerIsNotCampaignCreator",
      "type": "error"
    },
    {
      "inputs": [],
      "name": "CampaignGoalIsNotMet",
      "type": "error"
    },
    {
      "inputs": [],
      "name": "CampaignHasExpired",
      "type": "error"
    },
    {
      "inputs": [],
      "name": "CampaignIDDoesNotExist",
      "type": "error"
    },
    {
      "inputs": [],
      "name": "CampaignIsStillActive",
      "type": "error"
    },
    {
      "inputs": [],
      "name": "InsufficientFunds",
      "type": "error"
    },
    {
      "inputs": [],
      "name": "MustSendPledgeFunds",
      "type": "error"
    },
    {
      "inputs": [],
      "name": "SuccessfulCampaign_FunctionClosed",
      "type": "error"
    },
    {
      "anonymous": false,
      "inputs": [
        {
          "indexed": true,
          "internalType": "uint256",
          "name": "",
          "type": "uint256"
        },
        {
          "indexed": false,
          "internalType": "address",
          "name": "",
          "type": "address"
        },
        {
          "indexed": false,
          "internalType": "uint256",
          "name": "",
          "type": "uint256"
        },
        {
          "indexed": false,
          "internalType": "uint256",
          "name": "",
          "type": "uint256"
        },
        {
          "indexed": true,
          "internalType": "uint256",
          "name": "",
          "type": "uint256"
        },
        {
          "indexed": false,
          "internalType": "uint32",
          "name": "",
          "type": "uint32"
        }
      ],
      "name": "CampaignCreated",
      "type": "event"
    },
    {
      "anonymous": false,
      "inputs": [
        {
          "indexed": false,
          "internalType": "address payable",
          "name": "",
          "type": "address"
        }
      ],
      "name": "CampaignFundsSent",
      "type": "event"
    },
    {
      "anonymous": false,
      "inputs": [
        {
          "indexed": false,
          "internalType": "uint256",
          "name": "",
          "type": "uint256"
        }
      ],
      "name": "CampaignGoalMet_RAWK",
      "type": "event"
    },
    {
      "anonymous": false,
      "inputs": [
        {
          "indexed": false,
          "internalType": "address",
          "name": "",
          "type": "address"
        },
        {
          "indexed": false,
          "internalType": "uint256",
          "name": "",
          "type": "uint256"
        },
        {
          "indexed": false,
          "internalType": "uint256",
          "name": "",
          "type": "uint256"
        }
      ],
      "name": "CampaignPledge",
      "type": "event"
    },
    {
      "anonymous": false,
      "inputs": [
        {
          "indexed": false,
          "internalType": "uint32",
          "name": "",
          "type": "uint32"
        },
        {
          "indexed": false,
          "internalType": "address",
          "name": "",
          "type": "address"
        },
        {
          "indexed": false,
          "internalType": "uint256",
          "name": "",
          "type": "uint256"
        }
      ],
      "name": "CampaignRefundWithdrawal",
      "type": "event"
    },
    {
      "anonymous": false,
      "inputs": [
        {
          "indexed": true,
          "internalType": "address",
          "name": "previousOwner",
          "type": "address"
        },
        {
          "indexed": true,
          "internalType": "address",
          "name": "newOwner",
          "type": "address"
        }
      ],
      "name": "OwnershipTransferred",
      "type": "event"
    },
    {
      "anonymous": false,
      "inputs": [
        {
          "indexed": false,
          "internalType": "address payable",
          "name": "",
          "type": "address"
        },
        {
          "indexed": false,
          "internalType": "uint256",
          "name": "",
          "type": "uint256"
        }
      ],
      "name": "t0wnTokensClaimed",
      "type": "event"
    },
    {
      "stateMutability": "payable",
      "type": "fallback"
    },
    {
      "inputs": [
        {
          "internalType": "uint256",
          "name": "",
          "type": "uint256"
        }
      ],
      "name": "allCampaigns",
      "outputs": [
        {
          "internalType": "string",
          "name": "title",
          "type": "string"
        },
        {
          "internalType": "address",
          "name": "creator",
          "type": "address"
        },
        {
          "internalType": "uint256",
          "name": "targetAmount",
          "type": "uint256"
        },
        {
          "internalType": "uint256",
          "name": "refundBonus",
          "type": "uint256"
        },
        {
          "internalType": "uint256",
          "name": "campaignExpiryDate",
          "type": "uint256"
        },
        {
          "internalType": "uint32",
          "name": "maxEarlyPledgers",
          "type": "uint32"
        },
        {
          "internalType": "uint256",
          "name": "totalPledgedAmount",
          "type": "uint256"
        },
        {
          "internalType": "bool",
          "name": "isGoalMet",
          "type": "bool"
        },
        {
          "internalType": "bool",
          "name": "hasCompletedRefunds",
          "type": "bool"
        },
        {
          "internalType": "bool",
          "name": "creatorHasWithdrawnFunds",
          "type": "bool"
        }
      ],
      "stateMutability": "view",
      "type": "function"
    },
    {
      "inputs": [
        {
          "internalType": "uint32",
          "name": "",
          "type": "uint32"
        },
        {
          "internalType": "address",
          "name": "",
          "type": "address"
        }
      ],
      "name": "campaignEarlyPledgers",
      "outputs": [
        {
          "internalType": "bool",
          "name": "",
          "type": "bool"
        }
      ],
      "stateMutability": "view",
      "type": "function"
    },
    {
      "inputs": [
        {
          "internalType": "uint32",
          "name": "",
          "type": "uint32"
        },
        {
          "internalType": "address",
          "name": "",
          "type": "address"
        }
      ],
      "name": "campaignPledgerAmounts",
      "outputs": [
        {
          "internalType": "uint256",
          "name": "",
          "type": "uint256"
        }
      ],
      "stateMutability": "view",
      "type": "function"
    },
    {
      "inputs": [
        {
          "internalType": "uint32",
          "name": "",
          "type": "uint32"
        },
        {
          "internalType": "address",
          "name": "",
          "type": "address"
        }
      ],
      "name": "campaignPledgersRefunded",
      "outputs": [
        {
          "internalType": "bool",
          "name": "",
          "type": "bool"
        }
      ],
      "stateMutability": "view",
      "type": "function"
    },
    {
      "inputs": [
        {
          "internalType": "uint32",
          "name": "",
          "type": "uint32"
        }
      ],
      "name": "campaignsByID",
      "outputs": [
        {
          "internalType": "string",
          "name": "title",
          "type": "string"
        },
        {
          "internalType": "address",
          "name": "creator",
          "type": "address"
        },
        {
          "internalType": "uint256",
          "name": "targetAmount",
          "type": "uint256"
        },
        {
          "internalType": "uint256",
          "name": "refundBonus",
          "type": "uint256"
        },
        {
          "internalType": "uint256",
          "name": "campaignExpiryDate",
          "type": "uint256"
        },
        {
          "internalType": "uint32",
          "name": "maxEarlyPledgers",
          "type": "uint32"
        },
        {
          "internalType": "uint256",
          "name": "totalPledgedAmount",
          "type": "uint256"
        },
        {
          "internalType": "bool",
          "name": "isGoalMet",
          "type": "bool"
        },
        {
          "internalType": "bool",
          "name": "hasCompletedRefunds",
          "type": "bool"
        },
        {
          "internalType": "bool",
          "name": "creatorHasWithdrawnFunds",
          "type": "bool"
        }
      ],
      "stateMutability": "view",
      "type": "function"
    },
    {
      "inputs": [
        {
          "internalType": "string",
          "name": "_title",
          "type": "string"
        },
        {
          "internalType": "uint256",
          "name": "_targetAmount",
          "type": "uint256"
        },
        {
          "internalType": "uint256",
          "name": "_refundBonus",
          "type": "uint256"
        },
        {
          "internalType": "uint256",
          "name": "_campaignLengthInDays",
          "type": "uint256"
        },
        {
          "internalType": "uint32",
          "name": "_maxEarlyPledgers",
          "type": "uint32"
        }
      ],
      "name": "createCampaign",
      "outputs": [
        {
          "internalType": "uint32",
          "name": "",
          "type": "uint32"
        }
      ],
      "stateMutability": "payable",
      "type": "function"
    },
    {
      "inputs": [
        {
          "internalType": "address",
          "name": "",
          "type": "address"
        }
      ],
      "name": "creatorToCampaign",
      "outputs": [
        {
          "internalType": "string",
          "name": "title",
          "type": "string"
        },
        {
          "internalType": "address",
          "name": "creator",
          "type": "address"
        },
        {
          "internalType": "uint256",
          "name": "targetAmount",
          "type": "uint256"
        },
        {
          "internalType": "uint256",
          "name": "refundBonus",
          "type": "uint256"
        },
        {
          "internalType": "uint256",
          "name": "campaignExpiryDate",
          "type": "uint256"
        },
        {
          "internalType": "uint32",
          "name": "maxEarlyPledgers",
          "type": "uint32"
        },
        {
          "internalType": "uint256",
          "name": "totalPledgedAmount",
          "type": "uint256"
        },
        {
          "internalType": "bool",
          "name": "isGoalMet",
          "type": "bool"
        },
        {
          "internalType": "bool",
          "name": "hasCompletedRefunds",
          "type": "bool"
        },
        {
          "internalType": "bool",
          "name": "creatorHasWithdrawnFunds",
          "type": "bool"
        }
      ],
      "stateMutability": "view",
      "type": "function"
    },
    {
      "inputs": [
        {
          "internalType": "uint32",
          "name": "id",
          "type": "uint32"
        },
        {
          "internalType": "address payable",
          "name": "receivingAddress",
          "type": "address"
        }
      ],
      "name": "creatorWithdrawal",
      "outputs": [],
      "stateMutability": "payable",
      "type": "function"
    },
    {
      "inputs": [],
      "name": "getAddress",
      "outputs": [
        {
          "internalType": "address",
          "name": "",
          "type": "address"
        }
      ],
      "stateMutability": "view",
      "type": "function"
    },
    {
      "inputs": [
        {
          "internalType": "uint32",
          "name": "id",
          "type": "uint32"
        },
        {
          "internalType": "address",
          "name": "addy",
          "type": "address"
        }
      ],
      "name": "getAmountPledged",
      "outputs": [
        {
          "internalType": "uint256",
          "name": "",
          "type": "uint256"
        }
      ],
      "stateMutability": "view",
      "type": "function"
    },
    {
      "inputs": [],
      "name": "getBalance",
      "outputs": [
        {
          "internalType": "uint256",
          "name": "",
          "type": "uint256"
        }
      ],
      "stateMutability": "view",
      "type": "function"
    },
    {
      "inputs": [
        {
          "internalType": "uint32",
          "name": "id",
          "type": "uint32"
        }
      ],
      "name": "getCampaignAmountRefunded",
      "outputs": [
        {
          "internalType": "uint256",
          "name": "",
          "type": "uint256"
        },
        {
          "internalType": "uint256",
          "name": "",
          "type": "uint256"
        }
      ],
      "stateMutability": "view",
      "type": "function"
    },
    {
      "inputs": [],
      "name": "getCampaignCount",
      "outputs": [
        {
          "internalType": "uint256",
          "name": "",
          "type": "uint256"
        }
      ],
      "stateMutability": "view",
      "type": "function"
    },
    {
      "inputs": [
        {
          "internalType": "uint32",
          "name": "id",
          "type": "uint32"
        }
      ],
      "name": "getCampaignEarlyPledgers",
      "outputs": [
        {
          "internalType": "address[]",
          "name": "",
          "type": "address[]"
        }
      ],
      "stateMutability": "view",
      "type": "function"
    },
    {
      "inputs": [
        {
          "internalType": "uint32",
          "name": "id",
          "type": "uint32"
        }
      ],
      "name": "getCampaignFundingStatus",
      "outputs": [
        {
          "internalType": "uint256",
          "name": "",
          "type": "uint256"
        },
        {
          "internalType": "uint256",
          "name": "",
          "type": "uint256"
        },
        {
          "internalType": "bool",
          "name": "",
          "type": "bool"
        },
        {
          "internalType": "bool",
          "name": "",
          "type": "bool"
        }
      ],
      "stateMutability": "view",
      "type": "function"
    },
    {
      "inputs": [
        {
          "internalType": "uint32",
          "name": "id",
          "type": "uint32"
        }
      ],
      "name": "getCampaignInfo",
      "outputs": [
        {
          "internalType": "string",
          "name": "",
          "type": "string"
        },
        {
          "internalType": "address",
          "name": "",
          "type": "address"
        },
        {
          "internalType": "uint256",
          "name": "",
          "type": "uint256"
        },
        {
          "internalType": "uint256",
          "name": "",
          "type": "uint256"
        },
        {
          "internalType": "uint256",
          "name": "",
          "type": "uint256"
        },
        {
          "internalType": "uint32",
          "name": "",
          "type": "uint32"
        }
      ],
      "stateMutability": "view",
      "type": "function"
    },
    {
      "inputs": [
        {
          "internalType": "uint32",
          "name": "id",
          "type": "uint32"
        }
      ],
      "name": "getCampaignPledgers",
      "outputs": [
        {
          "internalType": "address[]",
          "name": "",
          "type": "address[]"
        }
      ],
      "stateMutability": "view",
      "type": "function"
    },
    {
      "inputs": [
        {
          "internalType": "uint32",
          "name": "id",
          "type": "uint32"
        }
      ],
      "name": "getCampaignRefundsCompleted",
      "outputs": [
        {
          "internalType": "bool",
          "name": "",
          "type": "bool"
        }
      ],
      "stateMutability": "view",
      "type": "function"
    },
    {
      "inputs": [
        {
          "internalType": "uint32",
          "name": "id",
          "type": "uint32"
        }
      ],
      "name": "getEarlyRefundCalc",
      "outputs": [
        {
          "internalType": "uint256",
          "name": "",
          "type": "uint256"
        }
      ],
      "stateMutability": "view",
      "type": "function"
    },
    {
      "inputs": [],
      "name": "owner",
      "outputs": [
        {
          "internalType": "address",
          "name": "",
          "type": "address"
        }
      ],
      "stateMutability": "view",
      "type": "function"
    },
    {
      "inputs": [
        {
          "internalType": "uint32",
          "name": "id",
          "type": "uint32"
        }
      ],
      "name": "pledge",
      "outputs": [],
      "stateMutability": "payable",
      "type": "function"
    },
    {
      "inputs": [],
      "name": "renounceOwnership",
      "outputs": [],
      "stateMutability": "nonpayable",
      "type": "function"
    },
    {
      "inputs": [
        {
          "internalType": "address",
          "name": "newOwner",
          "type": "address"
        }
      ],
      "name": "transferOwnership",
      "outputs": [],
      "stateMutability": "nonpayable",
      "type": "function"
    },
    {
      "inputs": [
        {
          "internalType": "uint32",
          "name": "id",
          "type": "uint32"
        }
      ],
      "name": "withdrawRefund",
      "outputs": [],
      "stateMutability": "payable",
      "type": "function"
    },
    {
      "stateMutability": "payable",
      "type": "receive"
    }
  ],
  "bytecode": "0x60806040523480156200001157600080fd5b5062000032620000266200003f60201b60201c565b6200004760201b60201c565b600180819055506200010b565b600033905090565b60008060009054906101000a900473ffffffffffffffffffffffffffffffffffffffff169050816000806101000a81548173ffffffffffffffffffffffffffffffffffffffff021916908373ffffffffffffffffffffffffffffffffffffffff1602179055508173ffffffffffffffffffffffffffffffffffffffff168173ffffffffffffffffffffffffffffffffffffffff167f8be0079c531659141344cd1fd0a4f28419497f9722a3daafe3b4186f6b6457e060405160405180910390a35050565b613e92806200011b6000396000f3fe60806040526004361061014f5760003560e01c80639c4571a7116100b6578063d0bdcaee1161006f578063d0bdcaee146104fd578063da0bf7a11461053d578063da708a661461057a578063e09e4dc314610596578063f2fde38b146105d3578063fb2388ef146105fc57610156565b80639c4571a7146103c8578063a052bcec14610405578063a509f4d114610421578063af29ef8b14610467578063af8f64f3146104a4578063bf1858e4146104e157610156565b80634bc8406a116101085780634bc8406a146102b05780634e53e10d146102ed578063611e0e811461032b5780636caa92181461035b578063715018a6146103865780638da5cb5b1461039d57610156565b806307d557c9146101585780630ab320a11461019557806312065fe0146101db578063303fe61f14610206578063350a87b91461024857806338cc48311461028557610156565b3661015657005b005b34801561016457600080fd5b5061017f600480360381019061017a9190612dfa565b610642565b60405161018c9190612e40565b60405180910390f35b3480156101a157600080fd5b506101bc60048036038101906101b79190612dfa565b61072f565b6040516101d29a99989796959493929190612f56565b60405180910390f35b3480156101e757600080fd5b506101f0610862565b6040516101fd9190612e40565b60405180910390f35b34801561021257600080fd5b5061022d60048036038101906102289190612dfa565b61086a565b60405161023f96959493929190612ff9565b60405180910390f35b34801561025457600080fd5b5061026f600480360381019061026a919061308d565b610a16565b60405161027c9190612e40565b60405180910390f35b34801561029157600080fd5b5061029a610a82565b6040516102a791906130cd565b60405180910390f35b3480156102bc57600080fd5b506102d760048036038101906102d29190612dfa565b610a8a565b6040516102e491906131a6565b60405180910390f35b3480156102f957600080fd5b50610314600480360381019061030f9190612dfa565b610b3a565b6040516103229291906131c8565b60405180910390f35b61034560048036038101906103409190613282565b610ef7565b604051610352919061331c565b60405180910390f35b34801561036757600080fd5b506103706115be565b60405161037d9190612e40565b60405180910390f35b34801561039257600080fd5b5061039b6115cb565b005b3480156103a957600080fd5b506103b26115df565b6040516103bf91906130cd565b60405180910390f35b3480156103d457600080fd5b506103ef60048036038101906103ea919061308d565b611608565b6040516103fc9190613337565b60405180910390f35b61041f600480360381019061041a9190612dfa565b611637565b005b34801561042d57600080fd5b5061044860048036038101906104439190613352565b611bc0565b60405161045e9a99989796959493929190612f56565b60405180910390f35b34801561047357600080fd5b5061048e6004803603810190610489919061308d565b611d03565b60405161049b9190613337565b60405180910390f35b3480156104b057600080fd5b506104cb60048036038101906104c69190612dfa565b611d32565b6040516104d891906131a6565b60405180910390f35b6104fb60048036038101906104f691906133bd565b611de2565b005b34801561050957600080fd5b50610524600480360381019061051f9190612dfa565b61210f565b60405161053494939291906133fd565b60405180910390f35b34801561054957600080fd5b50610564600480360381019061055f9190612dfa565b612209565b6040516105719190613337565b60405180910390f35b610594600480360381019061058f9190612dfa565b612242565b005b3480156105a257600080fd5b506105bd60048036038101906105b8919061308d565b612990565b6040516105ca9190612e40565b60405180910390f35b3480156105df57600080fd5b506105fa60048036038101906105f59190613442565b6129b5565b005b34801561060857600080fd5b50610623600480360381019061061e9190613442565b612a38565b6040516106399a99989796959493929190612f56565b60405180910390f35b600080600360008463ffffffff1663ffffffff1681526020019081526020016000206006018054905090506000600360008563ffffffff1663ffffffff16815260200190815260200160002060050160009054906101000a900463ffffffff1663ffffffff168261ffff16116106bc578161ffff166106f0565b600360008563ffffffff1663ffffffff16815260200190815260200160002060050160009054906101000a900463ffffffff165b63ffffffff16600360008663ffffffff1663ffffffff1681526020019081526020016000206003015461072391906134cd565b90508092505050919050565b60036020528060005260406000206000915090508060000180546107529061352d565b80601f016020809104026020016040519081016040528092919081815260200182805461077e9061352d565b80156107cb5780601f106107a0576101008083540402835291602001916107cb565b820191906000526020600020905b8154815290600101906020018083116107ae57829003601f168201915b5050505050908060010160009054906101000a900473ffffffffffffffffffffffffffffffffffffffff16908060020154908060030154908060040154908060050160009054906101000a900463ffffffff16908060080154908060090160009054906101000a900460ff16908060090160019054906101000a900460ff16908060090160029054906101000a900460ff1690508a565b600047905090565b60606000806000806000600360008863ffffffff1663ffffffff168152602001908152602001600020600001600360008963ffffffff1663ffffffff16815260200190815260200160002060010160009054906101000a900473ffffffffffffffffffffffffffffffffffffffff16600360008a63ffffffff1663ffffffff16815260200190815260200160002060020154600360008b63ffffffff1663ffffffff16815260200190815260200160002060030154600360008c63ffffffff1663ffffffff16815260200190815260200160002060040154600360008d63ffffffff1663ffffffff16815260200190815260200160002060050160009054906101000a900463ffffffff168580546109819061352d565b80601f01602080910402602001604051908101604052809291908181526020018280546109ad9061352d565b80156109fa5780601f106109cf576101008083540402835291602001916109fa565b820191906000526020600020905b8154815290600101906020018083116109dd57829003601f168201915b5050505050955095509550955095509550955091939550919395565b600080600560008563ffffffff1663ffffffff16815260200190815260200160002060008473ffffffffffffffffffffffffffffffffffffffff1673ffffffffffffffffffffffffffffffffffffffff1681526020019081526020016000205490508091505092915050565b600030905090565b6060600360008363ffffffff1663ffffffff168152602001908152602001600020600701805480602002602001604051908101604052809291908181526020018280548015610b2e57602002820191906000526020600020905b8160009054906101000a900473ffffffffffffffffffffffffffffffffffffffff1673ffffffffffffffffffffffffffffffffffffffff1681526020019060010190808311610ae4575b50505050509050919050565b6000806000600360008563ffffffff1663ffffffff168152602001908152602001600020600601805480602002602001604051908101604052809291908181526020018280548015610be157602002820191906000526020600020905b8160009054906101000a900473ffffffffffffffffffffffffffffffffffffffff1673ffffffffffffffffffffffffffffffffffffffff1681526020019060010190808311610b97575b5050505050905060008151905060008111610c31576040517f08c379a0000000000000000000000000000000000000000000000000000000008152600401610c28906135aa565b60405180910390fd5b600080600090505b828163ffffffff161015610e1c576000600560008963ffffffff1663ffffffff1681526020019081526020016000206000868463ffffffff1681518110610c8357610c826135ca565b5b602002602001015173ffffffffffffffffffffffffffffffffffffffff1673ffffffffffffffffffffffffffffffffffffffff168152602001908152602001600020541115610d5757600560008863ffffffff1663ffffffff1681526020019081526020016000206000858363ffffffff1681518110610d0657610d056135ca565b5b602002602001015173ffffffffffffffffffffffffffffffffffffffff1673ffffffffffffffffffffffffffffffffffffffff1681526020019081526020016000205482610d5491906135f9565b91505b60011515600660008963ffffffff1663ffffffff1681526020019081526020016000206000868463ffffffff1681518110610d9557610d946135ca565b5b602002602001015173ffffffffffffffffffffffffffffffffffffffff1673ffffffffffffffffffffffffffffffffffffffff16815260200190815260200160002060009054906101000a900460ff16151503610e09576000610df788610642565b90508083610e0591906135f9565b9250505b8080610e149061362d565b915050610c39565b600082600360008a63ffffffff1663ffffffff16815260200190815260200160002060030154600360008b63ffffffff1663ffffffff16815260200190815260200160002060080154610e6f91906135f9565b610e799190613659565b90506000600360008a63ffffffff1663ffffffff16815260200190815260200160002060030154600360008b63ffffffff1663ffffffff16815260200190815260200160002060080154610ecd91906135f9565b826064610eda919061368d565b610ee491906134cd565b9050818197509750505050505050915091565b6000838511610f3b576040517f08c379a0000000000000000000000000000000000000000000000000000000008152600401610f3290613741565b60405180910390fd5b833414610f7d576040517f08c379a0000000000000000000000000000000000000000000000000000000008152600401610f74906137d3565b60405180910390fd5b60006201518084610f8e919061368d565b42610f9991906135f9565b905060006040518061018001604052808a8a8080601f016020809104026020016040519081016040528093929190818152602001838380828437600081840152601f19601f8201169050808301925050505050505081526020013373ffffffffffffffffffffffffffffffffffffffff1681526020018881526020018781526020018381526020018563ffffffff168152602001600067ffffffffffffffff811115611048576110476137f3565b5b6040519080825280602002602001820160405280156110765781602001602082028036833780820191505090505b508152602001600067ffffffffffffffff811115611097576110966137f3565b5b6040519080825280602002602001820160405280156110c55781602001602082028036833780820191505090505b508152602001600081526020016000151581526020016000151581526020016000151581525090506000600280549050905060028290806001815401808255809150506001900390600052602060002090600a0201600090919091909150600082015181600001908161113891906139ce565b5060208201518160010160006101000a81548173ffffffffffffffffffffffffffffffffffffffff021916908373ffffffffffffffffffffffffffffffffffffffff16021790555060408201518160020155606082015181600301556080820151816004015560a08201518160050160006101000a81548163ffffffff021916908363ffffffff16021790555060c08201518160060190805190602001906111e1929190612d0d565b5060e08201518160070190805190602001906111fe929190612d0d565b5061010082015181600801556101208201518160090160006101000a81548160ff0219169083151502179055506101408201518160090160016101000a81548160ff0219169083151502179055506101608201518160090160026101000a81548160ff021916908315150217905550505081600360008363ffffffff1663ffffffff16815260200190815260200160002060008201518160000190816112a491906139ce565b5060208201518160010160006101000a81548173ffffffffffffffffffffffffffffffffffffffff021916908373ffffffffffffffffffffffffffffffffffffffff16021790555060408201518160020155606082015181600301556080820151816004015560a08201518160050160006101000a81548163ffffffff021916908363ffffffff16021790555060c082015181600601908051906020019061134d929190612d0d565b5060e082015181600701908051906020019061136a929190612d0d565b5061010082015181600801556101208201518160090160006101000a81548160ff0219169083151502179055506101408201518160090160016101000a81548160ff0219169083151502179055506101608201518160090160026101000a81548160ff02191690831515021790555090505081600460003373ffffffffffffffffffffffffffffffffffffffff1673ffffffffffffffffffffffffffffffffffffffff168152602001908152602001600020600082015181600001908161143191906139ce565b5060208201518160010160006101000a81548173ffffffffffffffffffffffffffffffffffffffff021916908373ffffffffffffffffffffffffffffffffffffffff16021790555060408201518160020155606082015181600301556080820151816004015560a08201518160050160006101000a81548163ffffffff021916908363ffffffff16021790555060c08201518160060190805190602001906114da929190612d0d565b5060e08201518160070190805190602001906114f7929190612d0d565b5061010082015181600801556101208201518160090160006101000a81548160ff0219169083151502179055506101408201518160090160016101000a81548160ff0219169083151502179055506101608201518160090160026101000a81548160ff021916908315150217905550905050828163ffffffff167f038bb5475f6e194732cf40c245df8ccf588cda49f6aae848ac7552c22f8b93a1338b8b8a6040516115a69493929190613aa0565b60405180910390a38093505050509695505050505050565b6000600280549050905090565b6115d3612b6b565b6115dd6000612be9565b565b60008060009054906101000a900473ffffffffffffffffffffffffffffffffffffffff16905090565b60066020528160005260406000206020528060005260406000206000915091509054906101000a900460ff1681565b6000600280549050118015611662575060016002805490506116599190613659565b8163ffffffff16115b15611699576040517f6ca1fc2800000000000000000000000000000000000000000000000000000000815260040160405180910390fd5b600360008263ffffffff1663ffffffff168152602001908152602001600020600401544211156116f5576040517fb91eaa5400000000000000000000000000000000000000000000000000000000815260040160405180910390fd5b60011515600360008363ffffffff1663ffffffff16815260200190815260200160002060090160009054906101000a900460ff16151503611762576040517f6721972000000000000000000000000000000000000000000000000000000000815260040160405180910390fd5b6000340361179c576040517fc3dda1d700000000000000000000000000000000000000000000000000000000815260040160405180910390fd5b60001515600660008363ffffffff1663ffffffff16815260200190815260200160002060003373ffffffffffffffffffffffffffffffffffffffff1673ffffffffffffffffffffffffffffffffffffffff16815260200190815260200160002060009054906101000a900460ff1615151480156118755750600360008263ffffffff1663ffffffff16815260200190815260200160002060050160009054906101000a900463ffffffff1663ffffffff16600360008363ffffffff1663ffffffff16815260200190815260200160002060060180549050105b15611973576001600660008363ffffffff1663ffffffff16815260200190815260200160002060003373ffffffffffffffffffffffffffffffffffffffff1673ffffffffffffffffffffffffffffffffffffffff16815260200190815260200160002060006101000a81548160ff021916908315150217905550600360008263ffffffff1663ffffffff168152602001908152602001600020600701339080600181540180825580915050600190039060005260206000200160009091909190916101000a81548173ffffffffffffffffffffffffffffffffffffffff021916908373ffffffffffffffffffffffffffffffffffffffff1602179055505b34600560008363ffffffff1663ffffffff16815260200190815260200160002060003373ffffffffffffffffffffffffffffffffffffffff1673ffffffffffffffffffffffffffffffffffffffff16815260200190815260200160002060008282546119df91906135f9565b9250508190555034600360008363ffffffff1663ffffffff1681526020019081526020016000206008016000828254611a1891906135f9565b92505081905550600360008263ffffffff1663ffffffff168152602001908152602001600020600601339080600181540180825580915050600190039060005260206000200160009091909190916101000a81548173ffffffffffffffffffffffffffffffffffffffff021916908373ffffffffffffffffffffffffffffffffffffffff1602179055507f921a2ec2a495b3244e803895a5f5481d303302aff750e1f14880c7a0c28edd84338234604051611ad593929190613b16565b60405180910390a1600360008263ffffffff1663ffffffff16815260200190815260200160002060020154600360008363ffffffff1663ffffffff1681526020019081526020016000206008015410611bbd576001600360008363ffffffff1663ffffffff16815260200190815260200160002060090160006101000a81548160ff0219169083151502179055507fc16fed8679f5abfb1e8e444da3214d318e55ced535c7f27ebabf3ff3540ad181600360008363ffffffff1663ffffffff16815260200190815260200160002060080154604051611bb49190612e40565b60405180910390a15b50565b60028181548110611bd057600080fd5b90600052602060002090600a0201600091509050806000018054611bf39061352d565b80601f0160208091040260200160405190810160405280929190818152602001828054611c1f9061352d565b8015611c6c5780601f10611c4157610100808354040283529160200191611c6c565b820191906000526020600020905b815481529060010190602001808311611c4f57829003601f168201915b5050505050908060010160009054906101000a900473ffffffffffffffffffffffffffffffffffffffff16908060020154908060030154908060040154908060050160009054906101000a900463ffffffff16908060080154908060090160009054906101000a900460ff16908060090160019054906101000a900460ff16908060090160029054906101000a900460ff1690508a565b60076020528160005260406000206020528060005260406000206000915091509054906101000a900460ff1681565b6060600360008363ffffffff1663ffffffff168152602001908152602001600020600601805480602002602001604051908101604052809291908181526020018280548015611dd657602002820191906000526020600020905b8160009054906101000a900473ffffffffffffffffffffffffffffffffffffffff1673ffffffffffffffffffffffffffffffffffffffff1681526020019060010190808311611d8c575b50505050509050919050565b600360008363ffffffff1663ffffffff16815260200190815260200160002060010160009054906101000a900473ffffffffffffffffffffffffffffffffffffffff1673ffffffffffffffffffffffffffffffffffffffff163373ffffffffffffffffffffffffffffffffffffffff1614611e89576040517f433b56a700000000000000000000000000000000000000000000000000000000815260040160405180910390fd5b60011515600360008463ffffffff1663ffffffff16815260200190815260200160002060090160009054906101000a900460ff16151514611ef6576040517fe54261a900000000000000000000000000000000000000000000000000000000815260040160405180910390fd5b600360008363ffffffff1663ffffffff16815260200190815260200160002060090160029054906101000a900460ff1615611f5d576040517f6507689f00000000000000000000000000000000000000000000000000000000815260040160405180910390fd5b6000600360008463ffffffff1663ffffffff16815260200190815260200160002060030154600360008563ffffffff1663ffffffff16815260200190815260200160002060080154611faf91906135f9565b905080471015611feb576040517f356680b700000000000000000000000000000000000000000000000000000000815260040160405180910390fd5b6001600360008563ffffffff1663ffffffff16815260200190815260200160002060090160026101000a81548160ff02191690831515021790555060008273ffffffffffffffffffffffffffffffffffffffff168260405161204c90613b7e565b60006040518083038185875af1925050503d8060008114612089576040519150601f19603f3d011682016040523d82523d6000602084013e61208e565b606091505b50509050806120d2576040517f08c379a00000000000000000000000000000000000000000000000000000000081526004016120c990613c05565b60405180910390fd5b7fc48cbdd5695711287d6c892e620581d6bd62e9557f1cdda3af90d174daffb558836040516121019190613c34565b60405180910390a150505050565b6000806000806000600360008763ffffffff1663ffffffff16815260200190815260200160002060020154600360008863ffffffff1663ffffffff168152602001908152602001600020600801546064612169919061368d565b61217391906134cd565b9050600360008763ffffffff1663ffffffff1681526020019081526020016000206008015481600360008963ffffffff1663ffffffff16815260200190815260200160002060090160009054906101000a900460ff16600360008a63ffffffff1663ffffffff16815260200190815260200160002060090160029054906101000a900460ff169450945094509450509193509193565b6000600360008363ffffffff1663ffffffff16815260200190815260200160002060090160019054906101000a900460ff169050919050565b61224a612cad565b600360008263ffffffff1663ffffffff168152602001908152602001600020600401544210156122a6576040517f2b7ace4a00000000000000000000000000000000000000000000000000000000815260040160405180910390fd5b600760008263ffffffff1663ffffffff16815260200190815260200160002060003373ffffffffffffffffffffffffffffffffffffffff1673ffffffffffffffffffffffffffffffffffffffff16815260200190815260200160002060009054906101000a900460ff1615612347576040517f6507689f00000000000000000000000000000000000000000000000000000000815260040160405180910390fd5b6000600560008363ffffffff1663ffffffff16815260200190815260200160002060003373ffffffffffffffffffffffffffffffffffffffff1673ffffffffffffffffffffffffffffffffffffffff16815260200190815260200160002054036123dd576040517f614a882800000000000000000000000000000000000000000000000000000000815260040160405180910390fd5b60011515600360008363ffffffff1663ffffffff16815260200190815260200160002060090160009054906101000a900460ff1615150361244a576040517f6721972000000000000000000000000000000000000000000000000000000000815260040160405180910390fd5b6000600560008363ffffffff1663ffffffff16815260200190815260200160002060003373ffffffffffffffffffffffffffffffffffffffff1673ffffffffffffffffffffffffffffffffffffffff168152602001908152602001600020549050600660008363ffffffff1663ffffffff16815260200190815260200160002060003373ffffffffffffffffffffffffffffffffffffffff1673ffffffffffffffffffffffffffffffffffffffff16815260200190815260200160002060009054906101000a900460ff161561273757600061252583610642565b90506000828261253591906135f9565b905080471015612571576040517f356680b700000000000000000000000000000000000000000000000000000000815260040160405180910390fd5b6000600560008663ffffffff1663ffffffff16815260200190815260200160002060003373ffffffffffffffffffffffffffffffffffffffff1673ffffffffffffffffffffffffffffffffffffffff168152602001908152602001600020819055506001600760008663ffffffff1663ffffffff16815260200190815260200160002060003373ffffffffffffffffffffffffffffffffffffffff1673ffffffffffffffffffffffffffffffffffffffff16815260200190815260200160002060006101000a81548160ff02191690831515021790555060003373ffffffffffffffffffffffffffffffffffffffff168260405161266e90613b7e565b60006040518083038185875af1925050503d80600081146126ab576040519150601f19603f3d011682016040523d82523d6000602084013e6126b0565b606091505b50509050806126f4576040517f08c379a00000000000000000000000000000000000000000000000000000000081526004016126eb90613c9b565b60405180910390fd5b7fcf754acd089cac012df2b5eef4facb2b8a87f0f49976a45144ac4cbde28848cc85338460405161272793929190613cbb565b60405180910390a1505050612931565b80471015612771576040517f356680b700000000000000000000000000000000000000000000000000000000815260040160405180910390fd5b6000600560008463ffffffff1663ffffffff16815260200190815260200160002060003373ffffffffffffffffffffffffffffffffffffffff1673ffffffffffffffffffffffffffffffffffffffff168152602001908152602001600020819055506001600760008463ffffffff1663ffffffff16815260200190815260200160002060003373ffffffffffffffffffffffffffffffffffffffff1673ffffffffffffffffffffffffffffffffffffffff16815260200190815260200160002060006101000a81548160ff02191690831515021790555060003373ffffffffffffffffffffffffffffffffffffffff168260405161286e90613b7e565b60006040518083038185875af1925050503d80600081146128ab576040519150601f19603f3d011682016040523d82523d6000602084013e6128b0565b606091505b50509050806128f4576040517f08c379a00000000000000000000000000000000000000000000000000000000081526004016128eb90613c9b565b60405180910390fd5b7fcf754acd089cac012df2b5eef4facb2b8a87f0f49976a45144ac4cbde28848cc83338460405161292793929190613cbb565b60405180910390a1505b600061293c83610b3a565b50905060008103612983576001600360008563ffffffff1663ffffffff16815260200190815260200160002060090160016101000a81548160ff0219169083151502179055505b505061298d612cfc565b50565b6005602052816000526040600020602052806000526040600020600091509150505481565b6129bd612b6b565b600073ffffffffffffffffffffffffffffffffffffffff168173ffffffffffffffffffffffffffffffffffffffff1603612a2c576040517f08c379a0000000000000000000000000000000000000000000000000000000008152600401612a2390613d64565b60405180910390fd5b612a3581612be9565b50565b6004602052806000526040600020600091509050806000018054612a5b9061352d565b80601f0160208091040260200160405190810160405280929190818152602001828054612a879061352d565b8015612ad45780601f10612aa957610100808354040283529160200191612ad4565b820191906000526020600020905b815481529060010190602001808311612ab757829003601f168201915b5050505050908060010160009054906101000a900473ffffffffffffffffffffffffffffffffffffffff16908060020154908060030154908060040154908060050160009054906101000a900463ffffffff16908060080154908060090160009054906101000a900460ff16908060090160019054906101000a900460ff16908060090160029054906101000a900460ff1690508a565b612b73612d05565b73ffffffffffffffffffffffffffffffffffffffff16612b916115df565b73ffffffffffffffffffffffffffffffffffffffff1614612be7576040517f08c379a0000000000000000000000000000000000000000000000000000000008152600401612bde90613dd0565b60405180910390fd5b565b60008060009054906101000a900473ffffffffffffffffffffffffffffffffffffffff169050816000806101000a81548173ffffffffffffffffffffffffffffffffffffffff021916908373ffffffffffffffffffffffffffffffffffffffff1602179055508173ffffffffffffffffffffffffffffffffffffffff168173ffffffffffffffffffffffffffffffffffffffff167f8be0079c531659141344cd1fd0a4f28419497f9722a3daafe3b4186f6b6457e060405160405180910390a35050565b600260015403612cf2576040517f08c379a0000000000000000000000000000000000000000000000000000000008152600401612ce990613e3c565b60405180910390fd5b6002600181905550565b60018081905550565b600033905090565b828054828255906000526020600020908101928215612d86579160200282015b82811115612d855782518260006101000a81548173ffffffffffffffffffffffffffffffffffffffff021916908373ffffffffffffffffffffffffffffffffffffffff16021790555091602001919060010190612d2d565b5b509050612d939190612d97565b5090565b5b80821115612db0576000816000905550600101612d98565b5090565b600080fd5b600080fd5b600063ffffffff82169050919050565b612dd781612dbe565b8114612de257600080fd5b50565b600081359050612df481612dce565b92915050565b600060208284031215612e1057612e0f612db4565b5b6000612e1e84828501612de5565b91505092915050565b6000819050919050565b612e3a81612e27565b82525050565b6000602082019050612e556000830184612e31565b92915050565b600081519050919050565b600082825260208201905092915050565b60005b83811015612e95578082015181840152602081019050612e7a565b60008484015250505050565b6000601f19601f8301169050919050565b6000612ebd82612e5b565b612ec78185612e66565b9350612ed7818560208601612e77565b612ee081612ea1565b840191505092915050565b600073ffffffffffffffffffffffffffffffffffffffff82169050919050565b6000612f1682612eeb565b9050919050565b612f2681612f0b565b82525050565b612f3581612dbe565b82525050565b60008115159050919050565b612f5081612f3b565b82525050565b6000610140820190508181036000830152612f71818d612eb2565b9050612f80602083018c612f1d565b612f8d604083018b612e31565b612f9a606083018a612e31565b612fa76080830189612e31565b612fb460a0830188612f2c565b612fc160c0830187612e31565b612fce60e0830186612f47565b612fdc610100830185612f47565b612fea610120830184612f47565b9b9a5050505050505050505050565b600060c08201905081810360008301526130138189612eb2565b90506130226020830188612f1d565b61302f6040830187612e31565b61303c6060830186612e31565b6130496080830185612e31565b61305660a0830184612f2c565b979650505050505050565b61306a81612f0b565b811461307557600080fd5b50565b60008135905061308781613061565b92915050565b600080604083850312156130a4576130a3612db4565b5b60006130b285828601612de5565b92505060206130c385828601613078565b9150509250929050565b60006020820190506130e26000830184612f1d565b92915050565b600081519050919050565b600082825260208201905092915050565b6000819050602082019050919050565b61311d81612f0b565b82525050565b600061312f8383613114565b60208301905092915050565b6000602082019050919050565b6000613153826130e8565b61315d81856130f3565b935061316883613104565b8060005b838110156131995781516131808882613123565b975061318b8361313b565b92505060018101905061316c565b5085935050505092915050565b600060208201905081810360008301526131c08184613148565b905092915050565b60006040820190506131dd6000830185612e31565b6131ea6020830184612e31565b9392505050565b600080fd5b600080fd5b600080fd5b60008083601f840112613216576132156131f1565b5b8235905067ffffffffffffffff811115613233576132326131f6565b5b60208301915083600182028301111561324f5761324e6131fb565b5b9250929050565b61325f81612e27565b811461326a57600080fd5b50565b60008135905061327c81613256565b92915050565b60008060008060008060a0878903121561329f5761329e612db4565b5b600087013567ffffffffffffffff8111156132bd576132bc612db9565b5b6132c989828a01613200565b965096505060206132dc89828a0161326d565b94505060406132ed89828a0161326d565b93505060606132fe89828a0161326d565b925050608061330f89828a01612de5565b9150509295509295509295565b60006020820190506133316000830184612f2c565b92915050565b600060208201905061334c6000830184612f47565b92915050565b60006020828403121561336857613367612db4565b5b60006133768482850161326d565b91505092915050565b600061338a82612eeb565b9050919050565b61339a8161337f565b81146133a557600080fd5b50565b6000813590506133b781613391565b92915050565b600080604083850312156133d4576133d3612db4565b5b60006133e285828601612de5565b92505060206133f3858286016133a8565b9150509250929050565b60006080820190506134126000830187612e31565b61341f6020830186612e31565b61342c6040830185612f47565b6134396060830184612f47565b95945050505050565b60006020828403121561345857613457612db4565b5b600061346684828501613078565b91505092915050565b7f4e487b7100000000000000000000000000000000000000000000000000000000600052601260045260246000fd5b7f4e487b7100000000000000000000000000000000000000000000000000000000600052601160045260246000fd5b60006134d882612e27565b91506134e383612e27565b9250826134f3576134f261346f565b5b828204905092915050565b7f4e487b7100000000000000000000000000000000000000000000000000000000600052602260045260246000fd5b6000600282049050600182168061354557607f821691505b602082108103613558576135576134fe565b5b50919050565b7f4e6f2063616d706169676e20706c656467657273207965742e00000000000000600082015250565b6000613594601983612e66565b915061359f8261355e565b602082019050919050565b600060208201905081810360008301526135c381613587565b9050919050565b7f4e487b7100000000000000000000000000000000000000000000000000000000600052603260045260246000fd5b600061360482612e27565b915061360f83612e27565b92508282019050808211156136275761362661349e565b5b92915050565b600061363882612dbe565b915063ffffffff820361364e5761364d61349e565b5b600182019050919050565b600061366482612e27565b915061366f83612e27565b92508282039050818111156136875761368661349e565b5b92915050565b600061369882612e27565b91506136a383612e27565b92508282026136b181612e27565b915082820484148315176136c8576136c761349e565b5b5092915050565b7f43616d706169676e20676f616c206d757374206265206772656174657220746860008201527f616e20626f6e75732e0000000000000000000000000000000000000000000000602082015250565b600061372b602983612e66565b9150613736826136cf565b604082019050919050565b6000602082019050818103600083015261375a8161371e565b9050919050565b7f46756e64732073656e7420746f20636f6e7472616374206d757374206571756160008201527f6c20726566756e6420626f6e757320616d6f756e742e00000000000000000000602082015250565b60006137bd603683612e66565b91506137c882613761565b604082019050919050565b600060208201905081810360008301526137ec816137b0565b9050919050565b7f4e487b7100000000000000000000000000000000000000000000000000000000600052604160045260246000fd5b60008190508160005260206000209050919050565b60006020601f8301049050919050565b600082821b905092915050565b6000600883026138847fffffffffffffffffffffffffffffffffffffffffffffffffffffffffffffffff82613847565b61388e8683613847565b95508019841693508086168417925050509392505050565b6000819050919050565b60006138cb6138c66138c184612e27565b6138a6565b612e27565b9050919050565b6000819050919050565b6138e5836138b0565b6138f96138f1826138d2565b848454613854565b825550505050565b600090565b61390e613901565b6139198184846138dc565b505050565b5b8181101561393d57613932600082613906565b60018101905061391f565b5050565b601f8211156139825761395381613822565b61395c84613837565b8101602085101561396b578190505b61397f61397785613837565b83018261391e565b50505b505050565b600082821c905092915050565b60006139a560001984600802613987565b1980831691505092915050565b60006139be8383613994565b9150826002028217905092915050565b6139d782612e5b565b67ffffffffffffffff8111156139f0576139ef6137f3565b5b6139fa825461352d565b613a05828285613941565b600060209050601f831160018114613a385760008415613a26578287015190505b613a3085826139b2565b865550613a98565b601f198416613a4686613822565b60005b82811015613a6e57848901518255600182019150602085019450602081019050613a49565b86831015613a8b5784890151613a87601f891682613994565b8355505b6001600288020188555050505b505050505050565b6000608082019050613ab56000830187612f1d565b613ac26020830186612e31565b613acf6040830185612e31565b613adc6060830184612f2c565b95945050505050565b6000613b00613afb613af684612dbe565b6138a6565b612e27565b9050919050565b613b1081613ae5565b82525050565b6000606082019050613b2b6000830186612f1d565b613b386020830185613b07565b613b456040830184612e31565b949350505050565b600081905092915050565b50565b6000613b68600083613b4d565b9150613b7382613b58565b600082019050919050565b6000613b8982613b5b565b9150819050919050565b7f4661696c656420746f2077697468647261772063616d706169676e2066756e6460008201527f732e000000000000000000000000000000000000000000000000000000000000602082015250565b6000613bef602283612e66565b9150613bfa82613b93565b604082019050919050565b60006020820190508181036000830152613c1e81613be2565b9050919050565b613c2e8161337f565b82525050565b6000602082019050613c496000830184613c25565b92915050565b7f4661696c656420746f2073656e6420726566756e640000000000000000000000600082015250565b6000613c85601583612e66565b9150613c9082613c4f565b602082019050919050565b60006020820190508181036000830152613cb481613c78565b9050919050565b6000606082019050613cd06000830186612f2c565b613cdd6020830185612f1d565b613cea6040830184612e31565b949350505050565b7f4f776e61626c653a206e6577206f776e657220697320746865207a65726f206160008201527f6464726573730000000000000000000000000000000000000000000000000000602082015250565b6000613d4e602683612e66565b9150613d5982613cf2565b604082019050919050565b60006020820190508181036000830152613d7d81613d41565b9050919050565b7f4f776e61626c653a2063616c6c6572206973206e6f7420746865206f776e6572600082015250565b6000613dba602083612e66565b9150613dc582613d84565b602082019050919050565b60006020820190508181036000830152613de981613dad565b9050919050565b7f5265656e7472616e637947756172643a207265656e7472616e742063616c6c00600082015250565b6000613e26601f83612e66565b9150613e3182613df0565b602082019050919050565b60006020820190508181036000830152613e5581613e19565b905091905056fea26469706673582212209c3619eebb977905cfd77b637f10155ab822cd6974f40901dcdae2925a824fc164736f6c63430008120033",
  "linkReferences": {},
  "deployedLinkReferences": {}
}