{
  "_format": "hh-sol-artifact-1",
  "contractName": "DAOntownToken",
  "sourceName": "contracts/DAOntownToken.sol",
  "abi": [
    {
      "inputs": [
        {
          "internalType": "address payable",
          "name": "_crowdfund",
          "type": "address"
        }
      ],
      "stateMutability": "nonpayable",
      "type": "constructor"
    },
    {
      "anonymous": false,
      "inputs": [
        {
          "indexed": true,
          "internalType": "address",
          "name": "owner",
          "type": "address"
        },
        {
          "indexed": true,
          "internalType": "address",
          "name": "spender",
          "type": "address"
        },
        {
          "indexed": false,
          "internalType": "uint256",
          "name": "value",
          "type": "uint256"
        }
      ],
      "name": "Approval",
      "type": "event"
    },
    {
      "anonymous": false,
      "inputs": [
        {
          "indexed": true,
          "internalType": "address",
          "name": "previousOwner",
          "type": "address"
        },
        {
          "indexed": true,
          "internalType": "address",
          "name": "newOwner",
          "type": "address"
        }
      ],
      "name": "OwnershipTransferred",
      "type": "event"
    },
    {
      "anonymous": false,
      "inputs": [
        {
          "indexed": true,
          "internalType": "address",
          "name": "from",
          "type": "address"
        },
        {
          "indexed": true,
          "internalType": "address",
          "name": "to",
          "type": "address"
        },
        {
          "indexed": false,
          "internalType": "uint256",
          "name": "value",
          "type": "uint256"
        }
      ],
      "name": "Transfer",
      "type": "event"
    },
    {
      "inputs": [
        {
          "internalType": "address",
          "name": "owner",
          "type": "address"
        },
        {
          "internalType": "address",
          "name": "spender",
          "type": "address"
        }
      ],
      "name": "allowance",
      "outputs": [
        {
          "internalType": "uint256",
          "name": "",
          "type": "uint256"
        }
      ],
      "stateMutability": "view",
      "type": "function"
    },
    {
      "inputs": [
        {
          "internalType": "address",
          "name": "spender",
          "type": "address"
        },
        {
          "internalType": "uint256",
          "name": "amount",
          "type": "uint256"
        }
      ],
      "name": "approve",
      "outputs": [
        {
          "internalType": "bool",
          "name": "",
          "type": "bool"
        }
      ],
      "stateMutability": "nonpayable",
      "type": "function"
    },
    {
      "inputs": [
        {
          "internalType": "address",
          "name": "account",
          "type": "address"
        }
      ],
      "name": "balanceOf",
      "outputs": [
        {
          "internalType": "uint256",
          "name": "",
          "type": "uint256"
        }
      ],
      "stateMutability": "view",
      "type": "function"
    },
    {
      "inputs": [
        {
          "internalType": "uint32",
          "name": "id",
          "type": "uint32"
        }
      ],
      "name": "claimDAOntownTokens",
      "outputs": [],
      "stateMutability": "nonpayable",
      "type": "function"
    },
    {
      "inputs": [],
      "name": "decimals",
      "outputs": [
        {
          "internalType": "uint8",
          "name": "",
          "type": "uint8"
        }
      ],
      "stateMutability": "view",
      "type": "function"
    },
    {
      "inputs": [
        {
          "internalType": "address",
          "name": "spender",
          "type": "address"
        },
        {
          "internalType": "uint256",
          "name": "subtractedValue",
          "type": "uint256"
        }
      ],
      "name": "decreaseAllowance",
      "outputs": [
        {
          "internalType": "bool",
          "name": "",
          "type": "bool"
        }
      ],
      "stateMutability": "nonpayable",
      "type": "function"
    },
    {
      "inputs": [
        {
          "internalType": "address",
          "name": "spender",
          "type": "address"
        },
        {
          "internalType": "uint256",
          "name": "addedValue",
          "type": "uint256"
        }
      ],
      "name": "increaseAllowance",
      "outputs": [
        {
          "internalType": "bool",
          "name": "",
          "type": "bool"
        }
      ],
      "stateMutability": "nonpayable",
      "type": "function"
    },
    {
      "inputs": [
        {
          "internalType": "address",
          "name": "to",
          "type": "address"
        },
        {
          "internalType": "uint256",
          "name": "amount",
          "type": "uint256"
        }
      ],
      "name": "mint",
      "outputs": [],
      "stateMutability": "nonpayable",
      "type": "function"
    },
    {
      "inputs": [],
      "name": "name",
      "outputs": [
        {
          "internalType": "string",
          "name": "",
          "type": "string"
        }
      ],
      "stateMutability": "view",
      "type": "function"
    },
    {
      "inputs": [],
      "name": "owner",
      "outputs": [
        {
          "internalType": "address",
          "name": "",
          "type": "address"
        }
      ],
      "stateMutability": "view",
      "type": "function"
    },
    {
      "inputs": [
        {
          "internalType": "uint32",
          "name": "",
          "type": "uint32"
        },
        {
          "internalType": "address",
          "name": "",
          "type": "address"
        }
      ],
      "name": "pledgerHasMintedTokens",
      "outputs": [
        {
          "internalType": "bool",
          "name": "",
          "type": "bool"
        }
      ],
      "stateMutability": "view",
      "type": "function"
    },
    {
      "inputs": [],
      "name": "renounceOwnership",
      "outputs": [],
      "stateMutability": "nonpayable",
      "type": "function"
    },
    {
      "inputs": [],
      "name": "symbol",
      "outputs": [
        {
          "internalType": "string",
          "name": "",
          "type": "string"
        }
      ],
      "stateMutability": "view",
      "type": "function"
    },
    {
      "inputs": [],
      "name": "tokensMintedFromCrowdfund",
      "outputs": [
        {
          "internalType": "uint256",
          "name": "",
          "type": "uint256"
        }
      ],
      "stateMutability": "view",
      "type": "function"
    },
    {
      "inputs": [],
      "name": "totalSupply",
      "outputs": [
        {
          "internalType": "uint256",
          "name": "",
          "type": "uint256"
        }
      ],
      "stateMutability": "view",
      "type": "function"
    },
    {
      "inputs": [
        {
          "internalType": "address",
          "name": "to",
          "type": "address"
        },
        {
          "internalType": "uint256",
          "name": "amount",
          "type": "uint256"
        }
      ],
      "name": "transfer",
      "outputs": [
        {
          "internalType": "bool",
          "name": "",
          "type": "bool"
        }
      ],
      "stateMutability": "nonpayable",
      "type": "function"
    },
    {
      "inputs": [
        {
          "internalType": "address",
          "name": "from",
          "type": "address"
        },
        {
          "internalType": "address",
          "name": "to",
          "type": "address"
        },
        {
          "internalType": "uint256",
          "name": "amount",
          "type": "uint256"
        }
      ],
      "name": "transferFrom",
      "outputs": [
        {
          "internalType": "bool",
          "name": "",
          "type": "bool"
        }
      ],
      "stateMutability": "nonpayable",
      "type": "function"
    },
    {
      "inputs": [
        {
          "internalType": "address",
          "name": "newOwner",
          "type": "address"
        }
      ],
      "name": "transferOwnership",
      "outputs": [],
      "stateMutability": "nonpayable",
      "type": "function"
    }
  ],
  "bytecode": "0x60a06040523480156200001157600080fd5b506040516200269f3803806200269f833981810160405281019062000037919062000264565b6040518060400160405280600e81526020017f44414f6e746f776e20546f6b656e0000000000000000000000000000000000008152506040518060400160405280600381526020017f44545400000000000000000000000000000000000000000000000000000000008152508160039081620000b4919062000510565b508060049081620000c6919062000510565b505050620000e9620000dd6200012c60201b60201c565b6200013460201b60201c565b60016006819055508073ffffffffffffffffffffffffffffffffffffffff1660808173ffffffffffffffffffffffffffffffffffffffff168152505050620005f7565b600033905090565b6000600560009054906101000a900473ffffffffffffffffffffffffffffffffffffffff16905081600560006101000a81548173ffffffffffffffffffffffffffffffffffffffff021916908373ffffffffffffffffffffffffffffffffffffffff1602179055508173ffffffffffffffffffffffffffffffffffffffff168173ffffffffffffffffffffffffffffffffffffffff167f8be0079c531659141344cd1fd0a4f28419497f9722a3daafe3b4186f6b6457e060405160405180910390a35050565b600080fd5b600073ffffffffffffffffffffffffffffffffffffffff82169050919050565b60006200022c82620001ff565b9050919050565b6200023e816200021f565b81146200024a57600080fd5b50565b6000815190506200025e8162000233565b92915050565b6000602082840312156200027d576200027c620001fa565b5b60006200028d848285016200024d565b91505092915050565b600081519050919050565b7f4e487b7100000000000000000000000000000000000000000000000000000000600052604160045260246000fd5b7f4e487b7100000000000000000000000000000000000000000000000000000000600052602260045260246000fd5b600060028204905060018216806200031857607f821691505b6020821081036200032e576200032d620002d0565b5b50919050565b60008190508160005260206000209050919050565b60006020601f8301049050919050565b600082821b905092915050565b600060088302620003987fffffffffffffffffffffffffffffffffffffffffffffffffffffffffffffffff8262000359565b620003a4868362000359565b95508019841693508086168417925050509392505050565b6000819050919050565b6000819050919050565b6000620003f1620003eb620003e584620003bc565b620003c6565b620003bc565b9050919050565b6000819050919050565b6200040d83620003d0565b620004256200041c82620003f8565b84845462000366565b825550505050565b600090565b6200043c6200042d565b6200044981848462000402565b505050565b5b8181101562000471576200046560008262000432565b6001810190506200044f565b5050565b601f821115620004c0576200048a8162000334565b620004958462000349565b81016020851015620004a5578190505b620004bd620004b48562000349565b8301826200044e565b50505b505050565b600082821c905092915050565b6000620004e560001984600802620004c5565b1980831691505092915050565b6000620005008383620004d2565b9150826002028217905092915050565b6200051b8262000296565b67ffffffffffffffff811115620005375762000536620002a1565b5b620005438254620002ff565b6200055082828562000475565b600060209050601f83116001811462000588576000841562000573578287015190505b6200057f8582620004f2565b865550620005ef565b601f198416620005988662000334565b60005b82811015620005c2578489015182556001820191506020850194506020810190506200059b565b86831015620005e25784890151620005de601f891682620004d2565b8355505b6001600288020188555050505b505050505050565b60805161207e62000621600039600081816106e4015281816107c2015261095a015261207e6000f3fe608060405234801561001057600080fd5b50600436106101165760003560e01c806376cf067f116100a2578063a9059cbb11610071578063a9059cbb146102e5578063ba9edf3614610315578063d99c355914610345578063dd62ed3e14610361578063f2fde38b1461039157610116565b806376cf067f1461025b5780638da5cb5b1461027957806395d89b4114610297578063a457c2d7146102b557610116565b8063313ce567116100e9578063313ce567146101b757806339509351146101d557806340c10f191461020557806370a0823114610221578063715018a61461025157610116565b806306fdde031461011b578063095ea7b31461013957806318160ddd1461016957806323b872dd14610187575b600080fd5b6101236103ad565b60405161013091906113fa565b60405180910390f35b610153600480360381019061014e91906114b5565b61043f565b6040516101609190611510565b60405180910390f35b610171610462565b60405161017e919061153a565b60405180910390f35b6101a1600480360381019061019c9190611555565b61046c565b6040516101ae9190611510565b60405180910390f35b6101bf61049b565b6040516101cc91906115c4565b60405180910390f35b6101ef60048036038101906101ea91906114b5565b6104a4565b6040516101fc9190611510565b60405180910390f35b61021f600480360381019061021a91906114b5565b6104db565b005b61023b600480360381019061023691906115df565b6104f1565b604051610248919061153a565b60405180910390f35b610259610539565b005b61026361054d565b604051610270919061153a565b60405180910390f35b610281610553565b60405161028e919061161b565b60405180910390f35b61029f61057d565b6040516102ac91906113fa565b60405180910390f35b6102cf60048036038101906102ca91906114b5565b61060f565b6040516102dc9190611510565b60405180910390f35b6102ff60048036038101906102fa91906114b5565b610686565b60405161030c9190611510565b60405180910390f35b61032f600480360381019061032a9190611672565b6106a9565b60405161033c9190611510565b60405180910390f35b61035f600480360381019061035a91906116b2565b6106d8565b005b61037b600480360381019061037691906116df565b610a82565b604051610388919061153a565b60405180910390f35b6103ab60048036038101906103a691906115df565b610b09565b005b6060600380546103bc9061174e565b80601f01602080910402602001604051908101604052809291908181526020018280546103e89061174e565b80156104355780601f1061040a57610100808354040283529160200191610435565b820191906000526020600020905b81548152906001019060200180831161041857829003601f168201915b5050505050905090565b60008061044a610b8c565b9050610457818585610b94565b600191505092915050565b6000600254905090565b600080610477610b8c565b9050610484858285610d5d565b61048f858585610de9565b60019150509392505050565b60006012905090565b6000806104af610b8c565b90506104d08185856104c18589610a82565b6104cb91906117ae565b610b94565b600191505092915050565b6104e361105f565b6104ed82826110dd565b5050565b60008060008373ffffffffffffffffffffffffffffffffffffffff1673ffffffffffffffffffffffffffffffffffffffff168152602001908152602001600020549050919050565b61054161105f565b61054b6000611233565b565b60085481565b6000600560009054906101000a900473ffffffffffffffffffffffffffffffffffffffff16905090565b60606004805461058c9061174e565b80601f01602080910402602001604051908101604052809291908181526020018280546105b89061174e565b80156106055780601f106105da57610100808354040283529160200191610605565b820191906000526020600020905b8154815290600101906020018083116105e857829003601f168201915b5050505050905090565b60008061061a610b8c565b905060006106288286610a82565b90508381101561066d576040517f08c379a000000000000000000000000000000000000000000000000000000000815260040161066490611854565b60405180910390fd5b61067a8286868403610b94565b60019250505092915050565b600080610691610b8c565b905061069e818585610de9565b600191505092915050565b60076020528160005260406000206020528060005260406000206000915091509054906101000a900460ff1681565b6106e06112f9565b60007f000000000000000000000000000000000000000000000000000000000000000073ffffffffffffffffffffffffffffffffffffffff1663350a87b983336040518363ffffffff1660e01b815260040161073d929190611883565b602060405180830381865afa15801561075a573d6000803e3d6000fd5b505050506040513d601f19601f8201168201806040525081019061077e91906118c1565b116107be576040517f08c379a00000000000000000000000000000000000000000000000000000000081526004016107b590611960565b60405180910390fd5b60007f000000000000000000000000000000000000000000000000000000000000000073ffffffffffffffffffffffffffffffffffffffff1663d0bdcaee836040518263ffffffff1660e01b81526004016108199190611980565b608060405180830381865afa158015610836573d6000803e3d6000fd5b505050506040513d601f19601f8201168201806040525081019061085a91906119c7565b509250505060011515811515146108a6576040517f08c379a000000000000000000000000000000000000000000000000000000000815260040161089d90611aa0565b60405180910390fd5b60001515600760008463ffffffff1663ffffffff16815260200190815260200160002060003373ffffffffffffffffffffffffffffffffffffffff1673ffffffffffffffffffffffffffffffffffffffff16815260200190815260200160002060009054906101000a900460ff16151514610956576040517f08c379a000000000000000000000000000000000000000000000000000000000815260040161094d90611b0c565b60405180910390fd5b60007f000000000000000000000000000000000000000000000000000000000000000073ffffffffffffffffffffffffffffffffffffffff1663350a87b984336040518363ffffffff1660e01b81526004016109b3929190611883565b602060405180830381865afa1580156109d0573d6000803e3d6000fd5b505050506040513d601f19601f820116820180604052508101906109f491906118c1565b90506001600760008563ffffffff1663ffffffff16815260200190815260200160002060003373ffffffffffffffffffffffffffffffffffffffff1673ffffffffffffffffffffffffffffffffffffffff16815260200190815260200160002060006101000a81548160ff021916908315150217905550610a753382611348565b5050610a7f611356565b50565b6000600160008473ffffffffffffffffffffffffffffffffffffffff1673ffffffffffffffffffffffffffffffffffffffff16815260200190815260200160002060008373ffffffffffffffffffffffffffffffffffffffff1673ffffffffffffffffffffffffffffffffffffffff16815260200190815260200160002054905092915050565b610b1161105f565b600073ffffffffffffffffffffffffffffffffffffffff168173ffffffffffffffffffffffffffffffffffffffff1603610b80576040517f08c379a0000000000000000000000000000000000000000000000000000000008152600401610b7790611b9e565b60405180910390fd5b610b8981611233565b50565b600033905090565b600073ffffffffffffffffffffffffffffffffffffffff168373ffffffffffffffffffffffffffffffffffffffff1603610c03576040517f08c379a0000000000000000000000000000000000000000000000000000000008152600401610bfa90611c30565b60405180910390fd5b600073ffffffffffffffffffffffffffffffffffffffff168273ffffffffffffffffffffffffffffffffffffffff1603610c72576040517f08c379a0000000000000000000000000000000000000000000000000000000008152600401610c6990611cc2565b60405180910390fd5b80600160008573ffffffffffffffffffffffffffffffffffffffff1673ffffffffffffffffffffffffffffffffffffffff16815260200190815260200160002060008473ffffffffffffffffffffffffffffffffffffffff1673ffffffffffffffffffffffffffffffffffffffff168152602001908152602001600020819055508173ffffffffffffffffffffffffffffffffffffffff168373ffffffffffffffffffffffffffffffffffffffff167f8c5be1e5ebec7d5bd14f71427d1e84f3dd0314c0f7b2291e5b200ac8c7c3b92583604051610d50919061153a565b60405180910390a3505050565b6000610d698484610a82565b90507fffffffffffffffffffffffffffffffffffffffffffffffffffffffffffffffff8114610de35781811015610dd5576040517f08c379a0000000000000000000000000000000000000000000000000000000008152600401610dcc90611d2e565b60405180910390fd5b610de28484848403610b94565b5b50505050565b600073ffffffffffffffffffffffffffffffffffffffff168373ffffffffffffffffffffffffffffffffffffffff1603610e58576040517f08c379a0000000000000000000000000000000000000000000000000000000008152600401610e4f90611dc0565b60405180910390fd5b600073ffffffffffffffffffffffffffffffffffffffff168273ffffffffffffffffffffffffffffffffffffffff1603610ec7576040517f08c379a0000000000000000000000000000000000000000000000000000000008152600401610ebe90611e52565b60405180910390fd5b610ed2838383611360565b60008060008573ffffffffffffffffffffffffffffffffffffffff1673ffffffffffffffffffffffffffffffffffffffff16815260200190815260200160002054905081811015610f58576040517f08c379a0000000000000000000000000000000000000000000000000000000008152600401610f4f90611ee4565b60405180910390fd5b8181036000808673ffffffffffffffffffffffffffffffffffffffff1673ffffffffffffffffffffffffffffffffffffffff16815260200190815260200160002081905550816000808573ffffffffffffffffffffffffffffffffffffffff1673ffffffffffffffffffffffffffffffffffffffff168152602001908152602001600020600082825401925050819055508273ffffffffffffffffffffffffffffffffffffffff168473ffffffffffffffffffffffffffffffffffffffff167fddf252ad1be2c89b69c2b068fc378daa952ba7f163c4a11628f55a4df523b3ef84604051611046919061153a565b60405180910390a3611059848484611365565b50505050565b611067610b8c565b73ffffffffffffffffffffffffffffffffffffffff16611085610553565b73ffffffffffffffffffffffffffffffffffffffff16146110db576040517f08c379a00000000000000000000000000000000000000000000000000000000081526004016110d290611f50565b60405180910390fd5b565b600073ffffffffffffffffffffffffffffffffffffffff168273ffffffffffffffffffffffffffffffffffffffff160361114c576040517f08c379a000000000000000000000000000000000000000000000000000000000815260040161114390611fbc565b60405180910390fd5b61115860008383611360565b806002600082825461116a91906117ae565b92505081905550806000808473ffffffffffffffffffffffffffffffffffffffff1673ffffffffffffffffffffffffffffffffffffffff168152602001908152602001600020600082825401925050819055508173ffffffffffffffffffffffffffffffffffffffff16600073ffffffffffffffffffffffffffffffffffffffff167fddf252ad1be2c89b69c2b068fc378daa952ba7f163c4a11628f55a4df523b3ef8360405161121b919061153a565b60405180910390a361122f60008383611365565b5050565b6000600560009054906101000a900473ffffffffffffffffffffffffffffffffffffffff16905081600560006101000a81548173ffffffffffffffffffffffffffffffffffffffff021916908373ffffffffffffffffffffffffffffffffffffffff1602179055508173ffffffffffffffffffffffffffffffffffffffff168173ffffffffffffffffffffffffffffffffffffffff167f8be0079c531659141344cd1fd0a4f28419497f9722a3daafe3b4186f6b6457e060405160405180910390a35050565b60026006540361133e576040517f08c379a000000000000000000000000000000000000000000000000000000000815260040161133590612028565b60405180910390fd5b6002600681905550565b61135282826110dd565b5050565b6001600681905550565b505050565b505050565b600081519050919050565b600082825260208201905092915050565b60005b838110156113a4578082015181840152602081019050611389565b60008484015250505050565b6000601f19601f8301169050919050565b60006113cc8261136a565b6113d68185611375565b93506113e6818560208601611386565b6113ef816113b0565b840191505092915050565b6000602082019050818103600083015261141481846113c1565b905092915050565b600080fd5b600073ffffffffffffffffffffffffffffffffffffffff82169050919050565b600061144c82611421565b9050919050565b61145c81611441565b811461146757600080fd5b50565b60008135905061147981611453565b92915050565b6000819050919050565b6114928161147f565b811461149d57600080fd5b50565b6000813590506114af81611489565b92915050565b600080604083850312156114cc576114cb61141c565b5b60006114da8582860161146a565b92505060206114eb858286016114a0565b9150509250929050565b60008115159050919050565b61150a816114f5565b82525050565b60006020820190506115256000830184611501565b92915050565b6115348161147f565b82525050565b600060208201905061154f600083018461152b565b92915050565b60008060006060848603121561156e5761156d61141c565b5b600061157c8682870161146a565b935050602061158d8682870161146a565b925050604061159e868287016114a0565b9150509250925092565b600060ff82169050919050565b6115be816115a8565b82525050565b60006020820190506115d960008301846115b5565b92915050565b6000602082840312156115f5576115f461141c565b5b60006116038482850161146a565b91505092915050565b61161581611441565b82525050565b6000602082019050611630600083018461160c565b92915050565b600063ffffffff82169050919050565b61164f81611636565b811461165a57600080fd5b50565b60008135905061166c81611646565b92915050565b600080604083850312156116895761168861141c565b5b60006116978582860161165d565b92505060206116a88582860161146a565b9150509250929050565b6000602082840312156116c8576116c761141c565b5b60006116d68482850161165d565b91505092915050565b600080604083850312156116f6576116f561141c565b5b60006117048582860161146a565b92505060206117158582860161146a565b9150509250929050565b7f4e487b7100000000000000000000000000000000000000000000000000000000600052602260045260246000fd5b6000600282049050600182168061176657607f821691505b6020821081036117795761177861171f565b5b50919050565b7f4e487b7100000000000000000000000000000000000000000000000000000000600052601160045260246000fd5b60006117b98261147f565b91506117c48361147f565b92508282019050808211156117dc576117db61177f565b5b92915050565b7f45524332303a2064656372656173656420616c6c6f77616e63652062656c6f7760008201527f207a65726f000000000000000000000000000000000000000000000000000000602082015250565b600061183e602583611375565b9150611849826117e2565b604082019050919050565b6000602082019050818103600083015261186d81611831565b9050919050565b61187d81611636565b82525050565b60006040820190506118986000830185611874565b6118a5602083018461160c565b9392505050565b6000815190506118bb81611489565b92915050565b6000602082840312156118d7576118d661141c565b5b60006118e5848285016118ac565b91505092915050565b7f4d7573742062652063726f776466756e64696e672063616d706169676e20706c60008201527f65646765722e0000000000000000000000000000000000000000000000000000602082015250565b600061194a602683611375565b9150611955826118ee565b604082019050919050565b600060208201905081810360008301526119798161193d565b9050919050565b60006020820190506119956000830184611874565b92915050565b6119a4816114f5565b81146119af57600080fd5b50565b6000815190506119c18161199b565b92915050565b600080600080608085870312156119e1576119e061141c565b5b60006119ef878288016118ac565b9450506020611a00878288016118ac565b9350506040611a11878288016119b2565b9250506060611a22878288016119b2565b91505092959194509250565b7f43616d706169676e20646964206e6f74206d6565742066756e64696e6720676f60008201527f616c2e0000000000000000000000000000000000000000000000000000000000602082015250565b6000611a8a602383611375565b9150611a9582611a2e565b604082019050919050565b60006020820190508181036000830152611ab981611a7d565b9050919050565b7f416c7265616479206d696e74656420796f757220616c6c6f746d656e742e0000600082015250565b6000611af6601e83611375565b9150611b0182611ac0565b602082019050919050565b60006020820190508181036000830152611b2581611ae9565b9050919050565b7f4f776e61626c653a206e6577206f776e657220697320746865207a65726f206160008201527f6464726573730000000000000000000000000000000000000000000000000000602082015250565b6000611b88602683611375565b9150611b9382611b2c565b604082019050919050565b60006020820190508181036000830152611bb781611b7b565b9050919050565b7f45524332303a20617070726f76652066726f6d20746865207a65726f2061646460008201527f7265737300000000000000000000000000000000000000000000000000000000602082015250565b6000611c1a602483611375565b9150611c2582611bbe565b604082019050919050565b60006020820190508181036000830152611c4981611c0d565b9050919050565b7f45524332303a20617070726f766520746f20746865207a65726f20616464726560008201527f7373000000000000000000000000000000000000000000000000000000000000602082015250565b6000611cac602283611375565b9150611cb782611c50565b604082019050919050565b60006020820190508181036000830152611cdb81611c9f565b9050919050565b7f45524332303a20696e73756666696369656e7420616c6c6f77616e6365000000600082015250565b6000611d18601d83611375565b9150611d2382611ce2565b602082019050919050565b60006020820190508181036000830152611d4781611d0b565b9050919050565b7f45524332303a207472616e736665722066726f6d20746865207a65726f20616460008201527f6472657373000000000000000000000000000000000000000000000000000000602082015250565b6000611daa602583611375565b9150611db582611d4e565b604082019050919050565b60006020820190508181036000830152611dd981611d9d565b9050919050565b7f45524332303a207472616e7366657220746f20746865207a65726f206164647260008201527f6573730000000000000000000000000000000000000000000000000000000000602082015250565b6000611e3c602383611375565b9150611e4782611de0565b604082019050919050565b60006020820190508181036000830152611e6b81611e2f565b9050919050565b7f45524332303a207472616e7366657220616d6f756e742065786365656473206260008201527f616c616e63650000000000000000000000000000000000000000000000000000602082015250565b6000611ece602683611375565b9150611ed982611e72565b604082019050919050565b60006020820190508181036000830152611efd81611ec1565b9050919050565b7f4f776e61626c653a2063616c6c6572206973206e6f7420746865206f776e6572600082015250565b6000611f3a602083611375565b9150611f4582611f04565b602082019050919050565b60006020820190508181036000830152611f6981611f2d565b9050919050565b7f45524332303a206d696e7420746f20746865207a65726f206164647265737300600082015250565b6000611fa6601f83611375565b9150611fb182611f70565b602082019050919050565b60006020820190508181036000830152611fd581611f99565b9050919050565b7f5265656e7472616e637947756172643a207265656e7472616e742063616c6c00600082015250565b6000612012601f83611375565b915061201d82611fdc565b602082019050919050565b6000602082019050818103600083015261204181612005565b905091905056fea264697066735822122072744b5e43fbba447a7a93d18d73abbbbded613481d6513c58b76bad94842da164736f6c63430008120033",
  "linkReferences": {},
  "deployedLinkReferences": {}
}