{
  "_format": "hh-sol-artifact-1",
  "contractName": "DAOntownToken",
  "sourceName": "contracts/DAOntownToken.sol",
  "abi": [
    {
      "inputs": [
        {
          "internalType": "address payable",
          "name": "_crowdfund",
          "type": "address"
        }
      ],
      "stateMutability": "nonpayable",
      "type": "constructor"
    },
    {
      "anonymous": false,
      "inputs": [
        {
          "indexed": true,
          "internalType": "address",
          "name": "owner",
          "type": "address"
        },
        {
          "indexed": true,
          "internalType": "address",
          "name": "spender",
          "type": "address"
        },
        {
          "indexed": false,
          "internalType": "uint256",
          "name": "value",
          "type": "uint256"
        }
      ],
      "name": "Approval",
      "type": "event"
    },
    {
      "anonymous": false,
      "inputs": [
        {
          "indexed": true,
          "internalType": "address",
          "name": "previousOwner",
          "type": "address"
        },
        {
          "indexed": true,
          "internalType": "address",
          "name": "newOwner",
          "type": "address"
        }
      ],
      "name": "OwnershipTransferred",
      "type": "event"
    },
    {
      "anonymous": false,
      "inputs": [
        {
          "indexed": true,
          "internalType": "address",
          "name": "from",
          "type": "address"
        },
        {
          "indexed": true,
          "internalType": "address",
          "name": "to",
          "type": "address"
        },
        {
          "indexed": false,
          "internalType": "uint256",
          "name": "value",
          "type": "uint256"
        }
      ],
      "name": "Transfer",
      "type": "event"
    },
    {
      "inputs": [
        {
          "internalType": "address",
          "name": "owner",
          "type": "address"
        },
        {
          "internalType": "address",
          "name": "spender",
          "type": "address"
        }
      ],
      "name": "allowance",
      "outputs": [
        {
          "internalType": "uint256",
          "name": "",
          "type": "uint256"
        }
      ],
      "stateMutability": "view",
      "type": "function"
    },
    {
      "inputs": [
        {
          "internalType": "address",
          "name": "spender",
          "type": "address"
        },
        {
          "internalType": "uint256",
          "name": "amount",
          "type": "uint256"
        }
      ],
      "name": "approve",
      "outputs": [
        {
          "internalType": "bool",
          "name": "",
          "type": "bool"
        }
      ],
      "stateMutability": "nonpayable",
      "type": "function"
    },
    {
      "inputs": [
        {
          "internalType": "address",
          "name": "account",
          "type": "address"
        }
      ],
      "name": "balanceOf",
      "outputs": [
        {
          "internalType": "uint256",
          "name": "",
          "type": "uint256"
        }
      ],
      "stateMutability": "view",
      "type": "function"
    },
    {
      "inputs": [
        {
          "internalType": "uint32",
          "name": "id",
          "type": "uint32"
        }
      ],
      "name": "claimDAOntownTokens",
      "outputs": [],
      "stateMutability": "nonpayable",
      "type": "function"
    },
    {
      "inputs": [],
      "name": "decimals",
      "outputs": [
        {
          "internalType": "uint8",
          "name": "",
          "type": "uint8"
        }
      ],
      "stateMutability": "view",
      "type": "function"
    },
    {
      "inputs": [
        {
          "internalType": "address",
          "name": "spender",
          "type": "address"
        },
        {
          "internalType": "uint256",
          "name": "subtractedValue",
          "type": "uint256"
        }
      ],
      "name": "decreaseAllowance",
      "outputs": [
        {
          "internalType": "bool",
          "name": "",
          "type": "bool"
        }
      ],
      "stateMutability": "nonpayable",
      "type": "function"
    },
    {
      "inputs": [
        {
          "internalType": "address",
          "name": "spender",
          "type": "address"
        },
        {
          "internalType": "uint256",
          "name": "addedValue",
          "type": "uint256"
        }
      ],
      "name": "increaseAllowance",
      "outputs": [
        {
          "internalType": "bool",
          "name": "",
          "type": "bool"
        }
      ],
      "stateMutability": "nonpayable",
      "type": "function"
    },
    {
      "inputs": [
        {
          "internalType": "address",
          "name": "to",
          "type": "address"
        },
        {
          "internalType": "uint256",
          "name": "amount",
          "type": "uint256"
        }
      ],
      "name": "mint",
      "outputs": [],
      "stateMutability": "nonpayable",
      "type": "function"
    },
    {
      "inputs": [],
      "name": "name",
      "outputs": [
        {
          "internalType": "string",
          "name": "",
          "type": "string"
        }
      ],
      "stateMutability": "view",
      "type": "function"
    },
    {
      "inputs": [],
      "name": "owner",
      "outputs": [
        {
          "internalType": "address",
          "name": "",
          "type": "address"
        }
      ],
      "stateMutability": "view",
      "type": "function"
    },
    {
      "inputs": [
        {
          "internalType": "address",
          "name": "",
          "type": "address"
        }
      ],
      "name": "pledgerHasMintedTokens",
      "outputs": [
        {
          "internalType": "bool",
          "name": "",
          "type": "bool"
        }
      ],
      "stateMutability": "view",
      "type": "function"
    },
    {
      "inputs": [],
      "name": "renounceOwnership",
      "outputs": [],
      "stateMutability": "nonpayable",
      "type": "function"
    },
    {
      "inputs": [],
      "name": "symbol",
      "outputs": [
        {
          "internalType": "string",
          "name": "",
          "type": "string"
        }
      ],
      "stateMutability": "view",
      "type": "function"
    },
    {
      "inputs": [],
      "name": "tokensMintedFromCrowdfund",
      "outputs": [
        {
          "internalType": "uint256",
          "name": "",
          "type": "uint256"
        }
      ],
      "stateMutability": "view",
      "type": "function"
    },
    {
      "inputs": [],
      "name": "totalSupply",
      "outputs": [
        {
          "internalType": "uint256",
          "name": "",
          "type": "uint256"
        }
      ],
      "stateMutability": "view",
      "type": "function"
    },
    {
      "inputs": [
        {
          "internalType": "address",
          "name": "to",
          "type": "address"
        },
        {
          "internalType": "uint256",
          "name": "amount",
          "type": "uint256"
        }
      ],
      "name": "transfer",
      "outputs": [
        {
          "internalType": "bool",
          "name": "",
          "type": "bool"
        }
      ],
      "stateMutability": "nonpayable",
      "type": "function"
    },
    {
      "inputs": [
        {
          "internalType": "address",
          "name": "from",
          "type": "address"
        },
        {
          "internalType": "address",
          "name": "to",
          "type": "address"
        },
        {
          "internalType": "uint256",
          "name": "amount",
          "type": "uint256"
        }
      ],
      "name": "transferFrom",
      "outputs": [
        {
          "internalType": "bool",
          "name": "",
          "type": "bool"
        }
      ],
      "stateMutability": "nonpayable",
      "type": "function"
    },
    {
      "inputs": [
        {
          "internalType": "address",
          "name": "newOwner",
          "type": "address"
        }
      ],
      "name": "transferOwnership",
      "outputs": [],
      "stateMutability": "nonpayable",
      "type": "function"
    }
  ],
  "bytecode": "0x60a06040523480156200001157600080fd5b506040516200261638038062002616833981810160405281019062000037919062000264565b6040518060400160405280600e81526020017f44414f6e746f776e20546f6b656e0000000000000000000000000000000000008152506040518060400160405280600381526020017f44545400000000000000000000000000000000000000000000000000000000008152508160039081620000b4919062000510565b508060049081620000c6919062000510565b505050620000e9620000dd6200012c60201b60201c565b6200013460201b60201c565b60016006819055508073ffffffffffffffffffffffffffffffffffffffff1660808173ffffffffffffffffffffffffffffffffffffffff168152505050620005f7565b600033905090565b6000600560009054906101000a900473ffffffffffffffffffffffffffffffffffffffff16905081600560006101000a81548173ffffffffffffffffffffffffffffffffffffffff021916908373ffffffffffffffffffffffffffffffffffffffff1602179055508173ffffffffffffffffffffffffffffffffffffffff168173ffffffffffffffffffffffffffffffffffffffff167f8be0079c531659141344cd1fd0a4f28419497f9722a3daafe3b4186f6b6457e060405160405180910390a35050565b600080fd5b600073ffffffffffffffffffffffffffffffffffffffff82169050919050565b60006200022c82620001ff565b9050919050565b6200023e816200021f565b81146200024a57600080fd5b50565b6000815190506200025e8162000233565b92915050565b6000602082840312156200027d576200027c620001fa565b5b60006200028d848285016200024d565b91505092915050565b600081519050919050565b7f4e487b7100000000000000000000000000000000000000000000000000000000600052604160045260246000fd5b7f4e487b7100000000000000000000000000000000000000000000000000000000600052602260045260246000fd5b600060028204905060018216806200031857607f821691505b6020821081036200032e576200032d620002d0565b5b50919050565b60008190508160005260206000209050919050565b60006020601f8301049050919050565b600082821b905092915050565b600060088302620003987fffffffffffffffffffffffffffffffffffffffffffffffffffffffffffffffff8262000359565b620003a4868362000359565b95508019841693508086168417925050509392505050565b6000819050919050565b6000819050919050565b6000620003f1620003eb620003e584620003bc565b620003c6565b620003bc565b9050919050565b6000819050919050565b6200040d83620003d0565b620004256200041c82620003f8565b84845462000366565b825550505050565b600090565b6200043c6200042d565b6200044981848462000402565b505050565b5b8181101562000471576200046560008262000432565b6001810190506200044f565b5050565b601f821115620004c0576200048a8162000334565b620004958462000349565b81016020851015620004a5578190505b620004bd620004b48562000349565b8301826200044e565b50505b505050565b600082821c905092915050565b6000620004e560001984600802620004c5565b1980831691505092915050565b6000620005008383620004d2565b9150826002028217905092915050565b6200051b8262000296565b67ffffffffffffffff811115620005375762000536620002a1565b5b620005438254620002ff565b6200055082828562000475565b600060209050601f83116001811462000588576000841562000573578287015190505b6200057f8582620004f2565b865550620005ef565b601f198416620005988662000334565b60005b82811015620005c2578489015182556001820191506020850194506020810190506200059b565b86831015620005e25784890151620005de601f891682620004d2565b8355505b6001600288020188555050505b505050505050565b608051611ff562000621600039600081816106d5015281816107b3015261092e0152611ff56000f3fe608060405234801561001057600080fd5b50600436106101165760003560e01c8063715018a6116100a2578063a457c2d711610071578063a457c2d7146102e5578063a9059cbb14610315578063d99c355914610345578063dd62ed3e14610361578063f2fde38b1461039157610116565b8063715018a61461028157806376cf067f1461028b5780638da5cb5b146102a957806395d89b41146102c757610116565b8063313ce567116100e9578063313ce567146101b757806339509351146101d557806340c10f19146102055780635e6b34da1461022157806370a082311461025157610116565b806306fdde031461011b578063095ea7b31461013957806318160ddd1461016957806323b872dd14610187575b600080fd5b6101236103ad565b60405161013091906113b1565b60405180910390f35b610153600480360381019061014e919061146c565b61043f565b60405161016091906114c7565b60405180910390f35b610171610462565b60405161017e91906114f1565b60405180910390f35b6101a1600480360381019061019c919061150c565b61046c565b6040516101ae91906114c7565b60405180910390f35b6101bf61049b565b6040516101cc919061157b565b60405180910390f35b6101ef60048036038101906101ea919061146c565b6104a4565b6040516101fc91906114c7565b60405180910390f35b61021f600480360381019061021a919061146c565b6104db565b005b61023b60048036038101906102369190611596565b6104f1565b60405161024891906114c7565b60405180910390f35b61026b60048036038101906102669190611596565b610511565b60405161027891906114f1565b60405180910390f35b610289610559565b005b61029361056d565b6040516102a091906114f1565b60405180910390f35b6102b1610573565b6040516102be91906115d2565b60405180910390f35b6102cf61059d565b6040516102dc91906113b1565b60405180910390f35b6102ff60048036038101906102fa919061146c565b61062f565b60405161030c91906114c7565b60405180910390f35b61032f600480360381019061032a919061146c565b6106a6565b60405161033c91906114c7565b60405180910390f35b61035f600480360381019061035a9190611629565b6106c9565b005b61037b60048036038101906103769190611656565b610a39565b60405161038891906114f1565b60405180910390f35b6103ab60048036038101906103a69190611596565b610ac0565b005b6060600380546103bc906116c5565b80601f01602080910402602001604051908101604052809291908181526020018280546103e8906116c5565b80156104355780601f1061040a57610100808354040283529160200191610435565b820191906000526020600020905b81548152906001019060200180831161041857829003601f168201915b5050505050905090565b60008061044a610b43565b9050610457818585610b4b565b600191505092915050565b6000600254905090565b600080610477610b43565b9050610484858285610d14565b61048f858585610da0565b60019150509392505050565b60006012905090565b6000806104af610b43565b90506104d08185856104c18589610a39565b6104cb9190611725565b610b4b565b600191505092915050565b6104e3611016565b6104ed8282611094565b5050565b60076020528060005260406000206000915054906101000a900460ff1681565b60008060008373ffffffffffffffffffffffffffffffffffffffff1673ffffffffffffffffffffffffffffffffffffffff168152602001908152602001600020549050919050565b610561611016565b61056b60006111ea565b565b60085481565b6000600560009054906101000a900473ffffffffffffffffffffffffffffffffffffffff16905090565b6060600480546105ac906116c5565b80601f01602080910402602001604051908101604052809291908181526020018280546105d8906116c5565b80156106255780601f106105fa57610100808354040283529160200191610625565b820191906000526020600020905b81548152906001019060200180831161060857829003601f168201915b5050505050905090565b60008061063a610b43565b905060006106488286610a39565b90508381101561068d576040517f08c379a0000000000000000000000000000000000000000000000000000000008152600401610684906117cb565b60405180910390fd5b61069a8286868403610b4b565b60019250505092915050565b6000806106b1610b43565b90506106be818585610da0565b600191505092915050565b6106d16112b0565b60007f000000000000000000000000000000000000000000000000000000000000000073ffffffffffffffffffffffffffffffffffffffff1663350a87b983336040518363ffffffff1660e01b815260040161072e9291906117fa565b602060405180830381865afa15801561074b573d6000803e3d6000fd5b505050506040513d601f19601f8201168201806040525081019061076f9190611838565b116107af576040517f08c379a00000000000000000000000000000000000000000000000000000000081526004016107a6906118d7565b60405180910390fd5b60007f000000000000000000000000000000000000000000000000000000000000000073ffffffffffffffffffffffffffffffffffffffff1663d0bdcaee836040518263ffffffff1660e01b815260040161080a91906118f7565b608060405180830381865afa158015610827573d6000803e3d6000fd5b505050506040513d601f19601f8201168201806040525081019061084b919061193e565b50925050506001151581151514610897576040517f08c379a000000000000000000000000000000000000000000000000000000000815260040161088e90611a17565b60405180910390fd5b60001515600760003373ffffffffffffffffffffffffffffffffffffffff1673ffffffffffffffffffffffffffffffffffffffff16815260200190815260200160002060009054906101000a900460ff1615151461092a576040517f08c379a000000000000000000000000000000000000000000000000000000000815260040161092190611a83565b60405180910390fd5b60007f000000000000000000000000000000000000000000000000000000000000000073ffffffffffffffffffffffffffffffffffffffff1663350a87b984336040518363ffffffff1660e01b81526004016109879291906117fa565b602060405180830381865afa1580156109a4573d6000803e3d6000fd5b505050506040513d601f19601f820116820180604052508101906109c89190611838565b90506001600760003373ffffffffffffffffffffffffffffffffffffffff1673ffffffffffffffffffffffffffffffffffffffff16815260200190815260200160002060006101000a81548160ff021916908315150217905550610a2c33826112ff565b5050610a3661130d565b50565b6000600160008473ffffffffffffffffffffffffffffffffffffffff1673ffffffffffffffffffffffffffffffffffffffff16815260200190815260200160002060008373ffffffffffffffffffffffffffffffffffffffff1673ffffffffffffffffffffffffffffffffffffffff16815260200190815260200160002054905092915050565b610ac8611016565b600073ffffffffffffffffffffffffffffffffffffffff168173ffffffffffffffffffffffffffffffffffffffff1603610b37576040517f08c379a0000000000000000000000000000000000000000000000000000000008152600401610b2e90611b15565b60405180910390fd5b610b40816111ea565b50565b600033905090565b600073ffffffffffffffffffffffffffffffffffffffff168373ffffffffffffffffffffffffffffffffffffffff1603610bba576040517f08c379a0000000000000000000000000000000000000000000000000000000008152600401610bb190611ba7565b60405180910390fd5b600073ffffffffffffffffffffffffffffffffffffffff168273ffffffffffffffffffffffffffffffffffffffff1603610c29576040517f08c379a0000000000000000000000000000000000000000000000000000000008152600401610c2090611c39565b60405180910390fd5b80600160008573ffffffffffffffffffffffffffffffffffffffff1673ffffffffffffffffffffffffffffffffffffffff16815260200190815260200160002060008473ffffffffffffffffffffffffffffffffffffffff1673ffffffffffffffffffffffffffffffffffffffff168152602001908152602001600020819055508173ffffffffffffffffffffffffffffffffffffffff168373ffffffffffffffffffffffffffffffffffffffff167f8c5be1e5ebec7d5bd14f71427d1e84f3dd0314c0f7b2291e5b200ac8c7c3b92583604051610d0791906114f1565b60405180910390a3505050565b6000610d208484610a39565b90507fffffffffffffffffffffffffffffffffffffffffffffffffffffffffffffffff8114610d9a5781811015610d8c576040517f08c379a0000000000000000000000000000000000000000000000000000000008152600401610d8390611ca5565b60405180910390fd5b610d998484848403610b4b565b5b50505050565b600073ffffffffffffffffffffffffffffffffffffffff168373ffffffffffffffffffffffffffffffffffffffff1603610e0f576040517f08c379a0000000000000000000000000000000000000000000000000000000008152600401610e0690611d37565b60405180910390fd5b600073ffffffffffffffffffffffffffffffffffffffff168273ffffffffffffffffffffffffffffffffffffffff1603610e7e576040517f08c379a0000000000000000000000000000000000000000000000000000000008152600401610e7590611dc9565b60405180910390fd5b610e89838383611317565b60008060008573ffffffffffffffffffffffffffffffffffffffff1673ffffffffffffffffffffffffffffffffffffffff16815260200190815260200160002054905081811015610f0f576040517f08c379a0000000000000000000000000000000000000000000000000000000008152600401610f0690611e5b565b60405180910390fd5b8181036000808673ffffffffffffffffffffffffffffffffffffffff1673ffffffffffffffffffffffffffffffffffffffff16815260200190815260200160002081905550816000808573ffffffffffffffffffffffffffffffffffffffff1673ffffffffffffffffffffffffffffffffffffffff168152602001908152602001600020600082825401925050819055508273ffffffffffffffffffffffffffffffffffffffff168473ffffffffffffffffffffffffffffffffffffffff167fddf252ad1be2c89b69c2b068fc378daa952ba7f163c4a11628f55a4df523b3ef84604051610ffd91906114f1565b60405180910390a361101084848461131c565b50505050565b61101e610b43565b73ffffffffffffffffffffffffffffffffffffffff1661103c610573565b73ffffffffffffffffffffffffffffffffffffffff1614611092576040517f08c379a000000000000000000000000000000000000000000000000000000000815260040161108990611ec7565b60405180910390fd5b565b600073ffffffffffffffffffffffffffffffffffffffff168273ffffffffffffffffffffffffffffffffffffffff1603611103576040517f08c379a00000000000000000000000000000000000000000000000000000000081526004016110fa90611f33565b60405180910390fd5b61110f60008383611317565b80600260008282546111219190611725565b92505081905550806000808473ffffffffffffffffffffffffffffffffffffffff1673ffffffffffffffffffffffffffffffffffffffff168152602001908152602001600020600082825401925050819055508173ffffffffffffffffffffffffffffffffffffffff16600073ffffffffffffffffffffffffffffffffffffffff167fddf252ad1be2c89b69c2b068fc378daa952ba7f163c4a11628f55a4df523b3ef836040516111d291906114f1565b60405180910390a36111e66000838361131c565b5050565b6000600560009054906101000a900473ffffffffffffffffffffffffffffffffffffffff16905081600560006101000a81548173ffffffffffffffffffffffffffffffffffffffff021916908373ffffffffffffffffffffffffffffffffffffffff1602179055508173ffffffffffffffffffffffffffffffffffffffff168173ffffffffffffffffffffffffffffffffffffffff167f8be0079c531659141344cd1fd0a4f28419497f9722a3daafe3b4186f6b6457e060405160405180910390a35050565b6002600654036112f5576040517f08c379a00000000000000000000000000000000000000000000000000000000081526004016112ec90611f9f565b60405180910390fd5b6002600681905550565b6113098282611094565b5050565b6001600681905550565b505050565b505050565b600081519050919050565b600082825260208201905092915050565b60005b8381101561135b578082015181840152602081019050611340565b60008484015250505050565b6000601f19601f8301169050919050565b600061138382611321565b61138d818561132c565b935061139d81856020860161133d565b6113a681611367565b840191505092915050565b600060208201905081810360008301526113cb8184611378565b905092915050565b600080fd5b600073ffffffffffffffffffffffffffffffffffffffff82169050919050565b6000611403826113d8565b9050919050565b611413816113f8565b811461141e57600080fd5b50565b6000813590506114308161140a565b92915050565b6000819050919050565b61144981611436565b811461145457600080fd5b50565b60008135905061146681611440565b92915050565b60008060408385031215611483576114826113d3565b5b600061149185828601611421565b92505060206114a285828601611457565b9150509250929050565b60008115159050919050565b6114c1816114ac565b82525050565b60006020820190506114dc60008301846114b8565b92915050565b6114eb81611436565b82525050565b600060208201905061150660008301846114e2565b92915050565b600080600060608486031215611525576115246113d3565b5b600061153386828701611421565b935050602061154486828701611421565b925050604061155586828701611457565b9150509250925092565b600060ff82169050919050565b6115758161155f565b82525050565b6000602082019050611590600083018461156c565b92915050565b6000602082840312156115ac576115ab6113d3565b5b60006115ba84828501611421565b91505092915050565b6115cc816113f8565b82525050565b60006020820190506115e760008301846115c3565b92915050565b600063ffffffff82169050919050565b611606816115ed565b811461161157600080fd5b50565b600081359050611623816115fd565b92915050565b60006020828403121561163f5761163e6113d3565b5b600061164d84828501611614565b91505092915050565b6000806040838503121561166d5761166c6113d3565b5b600061167b85828601611421565b925050602061168c85828601611421565b9150509250929050565b7f4e487b7100000000000000000000000000000000000000000000000000000000600052602260045260246000fd5b600060028204905060018216806116dd57607f821691505b6020821081036116f0576116ef611696565b5b50919050565b7f4e487b7100000000000000000000000000000000000000000000000000000000600052601160045260246000fd5b600061173082611436565b915061173b83611436565b9250828201905080821115611753576117526116f6565b5b92915050565b7f45524332303a2064656372656173656420616c6c6f77616e63652062656c6f7760008201527f207a65726f000000000000000000000000000000000000000000000000000000602082015250565b60006117b560258361132c565b91506117c082611759565b604082019050919050565b600060208201905081810360008301526117e4816117a8565b9050919050565b6117f4816115ed565b82525050565b600060408201905061180f60008301856117eb565b61181c60208301846115c3565b9392505050565b60008151905061183281611440565b92915050565b60006020828403121561184e5761184d6113d3565b5b600061185c84828501611823565b91505092915050565b7f4d7573742062652063726f776466756e64696e672063616d706169676e20706c60008201527f65646765722e0000000000000000000000000000000000000000000000000000602082015250565b60006118c160268361132c565b91506118cc82611865565b604082019050919050565b600060208201905081810360008301526118f0816118b4565b9050919050565b600060208201905061190c60008301846117eb565b92915050565b61191b816114ac565b811461192657600080fd5b50565b60008151905061193881611912565b92915050565b60008060008060808587031215611958576119576113d3565b5b600061196687828801611823565b945050602061197787828801611823565b935050604061198887828801611929565b925050606061199987828801611929565b91505092959194509250565b7f43616d706169676e20646964206e6f74206d6565742066756e64696e6720676f60008201527f616c2e0000000000000000000000000000000000000000000000000000000000602082015250565b6000611a0160238361132c565b9150611a0c826119a5565b604082019050919050565b60006020820190508181036000830152611a30816119f4565b9050919050565b7f416c7265616479206d696e74656420796f757220616c6c6f746d656e742e0000600082015250565b6000611a6d601e8361132c565b9150611a7882611a37565b602082019050919050565b60006020820190508181036000830152611a9c81611a60565b9050919050565b7f4f776e61626c653a206e6577206f776e657220697320746865207a65726f206160008201527f6464726573730000000000000000000000000000000000000000000000000000602082015250565b6000611aff60268361132c565b9150611b0a82611aa3565b604082019050919050565b60006020820190508181036000830152611b2e81611af2565b9050919050565b7f45524332303a20617070726f76652066726f6d20746865207a65726f2061646460008201527f7265737300000000000000000000000000000000000000000000000000000000602082015250565b6000611b9160248361132c565b9150611b9c82611b35565b604082019050919050565b60006020820190508181036000830152611bc081611b84565b9050919050565b7f45524332303a20617070726f766520746f20746865207a65726f20616464726560008201527f7373000000000000000000000000000000000000000000000000000000000000602082015250565b6000611c2360228361132c565b9150611c2e82611bc7565b604082019050919050565b60006020820190508181036000830152611c5281611c16565b9050919050565b7f45524332303a20696e73756666696369656e7420616c6c6f77616e6365000000600082015250565b6000611c8f601d8361132c565b9150611c9a82611c59565b602082019050919050565b60006020820190508181036000830152611cbe81611c82565b9050919050565b7f45524332303a207472616e736665722066726f6d20746865207a65726f20616460008201527f6472657373000000000000000000000000000000000000000000000000000000602082015250565b6000611d2160258361132c565b9150611d2c82611cc5565b604082019050919050565b60006020820190508181036000830152611d5081611d14565b9050919050565b7f45524332303a207472616e7366657220746f20746865207a65726f206164647260008201527f6573730000000000000000000000000000000000000000000000000000000000602082015250565b6000611db360238361132c565b9150611dbe82611d57565b604082019050919050565b60006020820190508181036000830152611de281611da6565b9050919050565b7f45524332303a207472616e7366657220616d6f756e742065786365656473206260008201527f616c616e63650000000000000000000000000000000000000000000000000000602082015250565b6000611e4560268361132c565b9150611e5082611de9565b604082019050919050565b60006020820190508181036000830152611e7481611e38565b9050919050565b7f4f776e61626c653a2063616c6c6572206973206e6f7420746865206f776e6572600082015250565b6000611eb160208361132c565b9150611ebc82611e7b565b602082019050919050565b60006020820190508181036000830152611ee081611ea4565b9050919050565b7f45524332303a206d696e7420746f20746865207a65726f206164647265737300600082015250565b6000611f1d601f8361132c565b9150611f2882611ee7565b602082019050919050565b60006020820190508181036000830152611f4c81611f10565b9050919050565b7f5265656e7472616e637947756172643a207265656e7472616e742063616c6c00600082015250565b6000611f89601f8361132c565b9150611f9482611f53565b602082019050919050565b60006020820190508181036000830152611fb881611f7c565b905091905056fea264697066735822122084fcf3667485b7df93547325f00ec9a83c4a06899bcc33dc4d23e6fa54557f3464736f6c63430008120033",
  "linkReferences": {},
  "deployedLinkReferences": {}
}