{
  "_format": "hh-sol-artifact-1",
  "contractName": "DAOntownToken",
  "sourceName": "contracts/DAOntownToken.sol",
  "abi": [
    {
      "inputs": [
        {
          "internalType": "address payable",
          "name": "_crowdfund",
          "type": "address"
        }
      ],
      "stateMutability": "nonpayable",
      "type": "constructor"
    },
    {
      "anonymous": false,
      "inputs": [
        {
          "indexed": true,
          "internalType": "address",
          "name": "owner",
          "type": "address"
        },
        {
          "indexed": true,
          "internalType": "address",
          "name": "spender",
          "type": "address"
        },
        {
          "indexed": false,
          "internalType": "uint256",
          "name": "value",
          "type": "uint256"
        }
      ],
      "name": "Approval",
      "type": "event"
    },
    {
      "anonymous": false,
      "inputs": [
        {
          "indexed": true,
          "internalType": "address",
          "name": "previousOwner",
          "type": "address"
        },
        {
          "indexed": true,
          "internalType": "address",
          "name": "newOwner",
          "type": "address"
        }
      ],
      "name": "OwnershipTransferred",
      "type": "event"
    },
    {
      "anonymous": false,
      "inputs": [
        {
          "indexed": true,
          "internalType": "address",
          "name": "from",
          "type": "address"
        },
        {
          "indexed": true,
          "internalType": "address",
          "name": "to",
          "type": "address"
        },
        {
          "indexed": false,
          "internalType": "uint256",
          "name": "value",
          "type": "uint256"
        }
      ],
      "name": "Transfer",
      "type": "event"
    },
    {
      "inputs": [
        {
          "internalType": "address",
          "name": "owner",
          "type": "address"
        },
        {
          "internalType": "address",
          "name": "spender",
          "type": "address"
        }
      ],
      "name": "allowance",
      "outputs": [
        {
          "internalType": "uint256",
          "name": "",
          "type": "uint256"
        }
      ],
      "stateMutability": "view",
      "type": "function"
    },
    {
      "inputs": [
        {
          "internalType": "address",
          "name": "spender",
          "type": "address"
        },
        {
          "internalType": "uint256",
          "name": "amount",
          "type": "uint256"
        }
      ],
      "name": "approve",
      "outputs": [
        {
          "internalType": "bool",
          "name": "",
          "type": "bool"
        }
      ],
      "stateMutability": "nonpayable",
      "type": "function"
    },
    {
      "inputs": [
        {
          "internalType": "address",
          "name": "account",
          "type": "address"
        }
      ],
      "name": "balanceOf",
      "outputs": [
        {
          "internalType": "uint256",
          "name": "",
          "type": "uint256"
        }
      ],
      "stateMutability": "view",
      "type": "function"
    },
    {
      "inputs": [
        {
          "internalType": "uint32",
          "name": "id",
          "type": "uint32"
        }
      ],
      "name": "claimDAOntownTokens",
      "outputs": [],
      "stateMutability": "nonpayable",
      "type": "function"
    },
    {
      "inputs": [],
      "name": "decimals",
      "outputs": [
        {
          "internalType": "uint8",
          "name": "",
          "type": "uint8"
        }
      ],
      "stateMutability": "view",
      "type": "function"
    },
    {
      "inputs": [
        {
          "internalType": "address",
          "name": "to",
          "type": "address"
        },
        {
          "internalType": "uint256",
          "name": "amount",
          "type": "uint256"
        }
      ],
      "name": "mint",
      "outputs": [],
      "stateMutability": "nonpayable",
      "type": "function"
    },
    {
      "inputs": [],
      "name": "name",
      "outputs": [
        {
          "internalType": "string",
          "name": "",
          "type": "string"
        }
      ],
      "stateMutability": "view",
      "type": "function"
    },
    {
      "inputs": [],
      "name": "owner",
      "outputs": [
        {
          "internalType": "address",
          "name": "",
          "type": "address"
        }
      ],
      "stateMutability": "view",
      "type": "function"
    },
    {
      "inputs": [
        {
          "internalType": "address",
          "name": "",
          "type": "address"
        }
      ],
      "name": "pledgerHasMintedTokens",
      "outputs": [
        {
          "internalType": "bool",
          "name": "",
          "type": "bool"
        }
      ],
      "stateMutability": "view",
      "type": "function"
    },
    {
      "inputs": [],
      "name": "renounceOwnership",
      "outputs": [],
      "stateMutability": "nonpayable",
      "type": "function"
    },
    {
      "inputs": [],
      "name": "symbol",
      "outputs": [
        {
          "internalType": "string",
          "name": "",
          "type": "string"
        }
      ],
      "stateMutability": "view",
      "type": "function"
    },
    {
      "inputs": [],
      "name": "tokensMintedFromCrowdfund",
      "outputs": [
        {
          "internalType": "uint256",
          "name": "",
          "type": "uint256"
        }
      ],
      "stateMutability": "view",
      "type": "function"
    },
    {
      "inputs": [],
      "name": "totalSupply",
      "outputs": [
        {
          "internalType": "uint256",
          "name": "",
          "type": "uint256"
        }
      ],
      "stateMutability": "view",
      "type": "function"
    },
    {
      "inputs": [
        {
          "internalType": "address",
          "name": "recipient",
          "type": "address"
        },
        {
          "internalType": "uint256",
          "name": "amount",
          "type": "uint256"
        }
      ],
      "name": "transfer",
      "outputs": [
        {
          "internalType": "bool",
          "name": "",
          "type": "bool"
        }
      ],
      "stateMutability": "nonpayable",
      "type": "function"
    },
    {
      "inputs": [
        {
          "internalType": "address",
          "name": "sender",
          "type": "address"
        },
        {
          "internalType": "address",
          "name": "recipient",
          "type": "address"
        },
        {
          "internalType": "uint256",
          "name": "amount",
          "type": "uint256"
        }
      ],
      "name": "transferFrom",
      "outputs": [
        {
          "internalType": "bool",
          "name": "",
          "type": "bool"
        }
      ],
      "stateMutability": "nonpayable",
      "type": "function"
    },
    {
      "inputs": [
        {
          "internalType": "address",
          "name": "newOwner",
          "type": "address"
        }
      ],
      "name": "transferOwnership",
      "outputs": [],
      "stateMutability": "nonpayable",
      "type": "function"
    }
  ],
  "bytecode": "0x60a06040523480156200001157600080fd5b50604051620023543803806200235483398181016040528101906200003791906200037b565b6040518060400160405280600e81526020017f44414f6e746f776e20546f6b656e0000000000000000000000000000000000008152506040518060400160405280600381526020017f445454000000000000000000000000000000000000000000000000000000000081525060126103e88360009081620000b9919062000627565b508260019081620000cb919062000627565b5081600260006101000a81548160ff021916908360ff160217905550600260009054906101000a900460ff16600a6200010591906200089e565b81620001129190620008ef565b600360008282546200012591906200093a565b92505081905550600354600460003373ffffffffffffffffffffffffffffffffffffffff1673ffffffffffffffffffffffffffffffffffffffff168152602001908152602001600020819055503373ffffffffffffffffffffffffffffffffffffffff16600073ffffffffffffffffffffffffffffffffffffffff167fddf252ad1be2c89b69c2b068fc378daa952ba7f163c4a11628f55a4df523b3ef600354604051620001d4919062000986565b60405180910390a35050505062000200620001f46200024360201b60201c565b6200024b60201b60201c565b60016007819055508073ffffffffffffffffffffffffffffffffffffffff1660808173ffffffffffffffffffffffffffffffffffffffff168152505050620009a3565b600033905090565b6000600660009054906101000a900473ffffffffffffffffffffffffffffffffffffffff16905081600660006101000a81548173ffffffffffffffffffffffffffffffffffffffff021916908373ffffffffffffffffffffffffffffffffffffffff1602179055508173ffffffffffffffffffffffffffffffffffffffff168173ffffffffffffffffffffffffffffffffffffffff167f8be0079c531659141344cd1fd0a4f28419497f9722a3daafe3b4186f6b6457e060405160405180910390a35050565b600080fd5b600073ffffffffffffffffffffffffffffffffffffffff82169050919050565b6000620003438262000316565b9050919050565b620003558162000336565b81146200036157600080fd5b50565b60008151905062000375816200034a565b92915050565b60006020828403121562000394576200039362000311565b5b6000620003a48482850162000364565b91505092915050565b600081519050919050565b7f4e487b7100000000000000000000000000000000000000000000000000000000600052604160045260246000fd5b7f4e487b7100000000000000000000000000000000000000000000000000000000600052602260045260246000fd5b600060028204905060018216806200042f57607f821691505b602082108103620004455762000444620003e7565b5b50919050565b60008190508160005260206000209050919050565b60006020601f8301049050919050565b600082821b905092915050565b600060088302620004af7fffffffffffffffffffffffffffffffffffffffffffffffffffffffffffffffff8262000470565b620004bb868362000470565b95508019841693508086168417925050509392505050565b6000819050919050565b6000819050919050565b60006200050862000502620004fc84620004d3565b620004dd565b620004d3565b9050919050565b6000819050919050565b6200052483620004e7565b6200053c62000533826200050f565b8484546200047d565b825550505050565b600090565b6200055362000544565b6200056081848462000519565b505050565b5b8181101562000588576200057c60008262000549565b60018101905062000566565b5050565b601f821115620005d757620005a1816200044b565b620005ac8462000460565b81016020851015620005bc578190505b620005d4620005cb8562000460565b83018262000565565b50505b505050565b600082821c905092915050565b6000620005fc60001984600802620005dc565b1980831691505092915050565b6000620006178383620005e9565b9150826002028217905092915050565b6200063282620003ad565b67ffffffffffffffff8111156200064e576200064d620003b8565b5b6200065a825462000416565b620006678282856200058c565b600060209050601f8311600181146200069f57600084156200068a578287015190505b62000696858262000609565b86555062000706565b601f198416620006af866200044b565b60005b82811015620006d957848901518255600182019150602085019450602081019050620006b2565b86831015620006f95784890151620006f5601f891682620005e9565b8355505b6001600288020188555050505b505050505050565b7f4e487b7100000000000000000000000000000000000000000000000000000000600052601160045260246000fd5b60008160011c9050919050565b6000808291508390505b60018511156200079c578086048111156200077457620007736200070e565b5b6001851615620007845780820291505b808102905062000794856200073d565b945062000754565b94509492505050565b600082620007b757600190506200088a565b81620007c757600090506200088a565b8160018114620007e05760028114620007eb5762000821565b60019150506200088a565b60ff8411156200080057620007ff6200070e565b5b8360020a9150848211156200081a57620008196200070e565b5b506200088a565b5060208310610133831016604e8410600b84101617156200085b5782820a9050838111156200085557620008546200070e565b5b6200088a565b6200086a84848460016200074a565b925090508184048111156200088457620008836200070e565b5b81810290505b9392505050565b600060ff82169050919050565b6000620008ab82620004d3565b9150620008b88362000891565b9250620008e77fffffffffffffffffffffffffffffffffffffffffffffffffffffffffffffffff8484620007a5565b905092915050565b6000620008fc82620004d3565b91506200090983620004d3565b92508282026200091981620004d3565b915082820484148315176200093357620009326200070e565b5b5092915050565b60006200094782620004d3565b91506200095483620004d3565b92508282019050808211156200096f576200096e6200070e565b5b92915050565b6200098081620004d3565b82525050565b60006020820190506200099d600083018462000975565b92915050565b608051611987620009cd600039600081816108ff015281816109dd0152610b5801526119876000f3fe608060405234801561001057600080fd5b50600436106101005760003560e01c8063715018a611610097578063a9059cbb11610066578063a9059cbb1461029f578063d99c3559146102cf578063dd62ed3e146102eb578063f2fde38b1461031b57610100565b8063715018a61461023b57806376cf067f146102455780638da5cb5b1461026357806395d89b411461028157610100565b8063313ce567116100d3578063313ce567146101a157806340c10f19146101bf5780635e6b34da146101db57806370a082311461020b57610100565b806306fdde0314610105578063095ea7b31461012357806318160ddd1461015357806323b872dd14610171575b600080fd5b61010d610337565b60405161011a91906110e7565b60405180910390f35b61013d600480360381019061013891906111a2565b6103c5565b60405161014a91906111fd565b60405180910390f35b61015b6104b7565b6040516101689190611227565b60405180910390f35b61018b60048036038101906101869190611242565b6104c1565b60405161019891906111fd565b60405180910390f35b6101a9610672565b6040516101b691906112b1565b60405180910390f35b6101d960048036038101906101d491906111a2565b610685565b005b6101f560048036038101906101f091906112cc565b61069b565b60405161020291906111fd565b60405180910390f35b610225600480360381019061022091906112cc565b6106bb565b6040516102329190611227565b60405180910390f35b610243610704565b005b61024d610718565b60405161025a9190611227565b60405180910390f35b61026b61071e565b6040516102789190611308565b60405180910390f35b610289610748565b60405161029691906110e7565b60405180910390f35b6102b960048036038101906102b491906111a2565b6107d6565b6040516102c691906111fd565b60405180910390f35b6102e960048036038101906102e4919061135f565b6108f3565b005b6103056004803603810190610300919061138c565b610c5b565b6040516103129190611227565b60405180910390f35b610335600480360381019061033091906112cc565b610ce2565b005b60008054610344906113fb565b80601f0160208091040260200160405190810160405280929190818152602001828054610370906113fb565b80156103bd5780601f10610392576101008083540402835291602001916103bd565b820191906000526020600020905b8154815290600101906020018083116103a057829003601f168201915b505050505081565b600081600560003373ffffffffffffffffffffffffffffffffffffffff1673ffffffffffffffffffffffffffffffffffffffff16815260200190815260200160002060008573ffffffffffffffffffffffffffffffffffffffff1673ffffffffffffffffffffffffffffffffffffffff168152602001908152602001600020819055508273ffffffffffffffffffffffffffffffffffffffff163373ffffffffffffffffffffffffffffffffffffffff167f8c5be1e5ebec7d5bd14f71427d1e84f3dd0314c0f7b2291e5b200ac8c7c3b925846040516104a59190611227565b60405180910390a36001905092915050565b6000600354905090565b600081600560008673ffffffffffffffffffffffffffffffffffffffff1673ffffffffffffffffffffffffffffffffffffffff16815260200190815260200160002060003373ffffffffffffffffffffffffffffffffffffffff1673ffffffffffffffffffffffffffffffffffffffff168152602001908152602001600020600082825461054f919061145b565b9250508190555081600460008673ffffffffffffffffffffffffffffffffffffffff1673ffffffffffffffffffffffffffffffffffffffff16815260200190815260200160002060008282546105a5919061145b565b9250508190555081600460008573ffffffffffffffffffffffffffffffffffffffff1673ffffffffffffffffffffffffffffffffffffffff16815260200190815260200160002060008282546105fb919061148f565b925050819055508273ffffffffffffffffffffffffffffffffffffffff168473ffffffffffffffffffffffffffffffffffffffff167fddf252ad1be2c89b69c2b068fc378daa952ba7f163c4a11628f55a4df523b3ef8460405161065f9190611227565b60405180910390a3600190509392505050565b600260009054906101000a900460ff1681565b61068d610d65565b6106978282610de3565b5050565b60086020528060005260406000206000915054906101000a900460ff1681565b6000600460008373ffffffffffffffffffffffffffffffffffffffff1673ffffffffffffffffffffffffffffffffffffffff168152602001908152602001600020549050919050565b61070c610d65565b6107166000610f22565b565b60095481565b6000600660009054906101000a900473ffffffffffffffffffffffffffffffffffffffff16905090565b60018054610755906113fb565b80601f0160208091040260200160405190810160405280929190818152602001828054610781906113fb565b80156107ce5780601f106107a3576101008083540402835291602001916107ce565b820191906000526020600020905b8154815290600101906020018083116107b157829003601f168201915b505050505081565b600081600460003373ffffffffffffffffffffffffffffffffffffffff1673ffffffffffffffffffffffffffffffffffffffff1681526020019081526020016000206000828254610827919061145b565b9250508190555081600460008573ffffffffffffffffffffffffffffffffffffffff1673ffffffffffffffffffffffffffffffffffffffff168152602001908152602001600020600082825461087d919061148f565b925050819055508273ffffffffffffffffffffffffffffffffffffffff163373ffffffffffffffffffffffffffffffffffffffff167fddf252ad1be2c89b69c2b068fc378daa952ba7f163c4a11628f55a4df523b3ef846040516108e19190611227565b60405180910390a36001905092915050565b6108fb610fe8565b60007f000000000000000000000000000000000000000000000000000000000000000073ffffffffffffffffffffffffffffffffffffffff1663350a87b983336040518363ffffffff1660e01b81526004016109589291906114d2565b602060405180830381865afa158015610975573d6000803e3d6000fd5b505050506040513d601f19601f820116820180604052508101906109999190611510565b116109d9576040517f08c379a00000000000000000000000000000000000000000000000000000000081526004016109d0906115af565b60405180910390fd5b60007f000000000000000000000000000000000000000000000000000000000000000073ffffffffffffffffffffffffffffffffffffffff1663d0bdcaee836040518263ffffffff1660e01b8152600401610a3491906115cf565b608060405180830381865afa158015610a51573d6000803e3d6000fd5b505050506040513d601f19601f82011682018060405250810190610a759190611616565b50925050506001151581151514610ac1576040517f08c379a0000000000000000000000000000000000000000000000000000000008152600401610ab8906116ef565b60405180910390fd5b60001515600860003373ffffffffffffffffffffffffffffffffffffffff1673ffffffffffffffffffffffffffffffffffffffff16815260200190815260200160002060009054906101000a900460ff16151514610b54576040517f08c379a0000000000000000000000000000000000000000000000000000000008152600401610b4b9061175b565b60405180910390fd5b60007f000000000000000000000000000000000000000000000000000000000000000073ffffffffffffffffffffffffffffffffffffffff1663350a87b984336040518363ffffffff1660e01b8152600401610bb19291906114d2565b602060405180830381865afa158015610bce573d6000803e3d6000fd5b505050506040513d601f19601f82011682018060405250810190610bf29190611510565b905060011515600860003373ffffffffffffffffffffffffffffffffffffffff1673ffffffffffffffffffffffffffffffffffffffff16815260200190815260200160002060009054906101000a90505050610c4e3382611037565b5050610c58611045565b50565b6000600560008473ffffffffffffffffffffffffffffffffffffffff1673ffffffffffffffffffffffffffffffffffffffff16815260200190815260200160002060008373ffffffffffffffffffffffffffffffffffffffff1673ffffffffffffffffffffffffffffffffffffffff16815260200190815260200160002054905092915050565b610cea610d65565b600073ffffffffffffffffffffffffffffffffffffffff168173ffffffffffffffffffffffffffffffffffffffff1603610d59576040517f08c379a0000000000000000000000000000000000000000000000000000000008152600401610d50906117ed565b60405180910390fd5b610d6281610f22565b50565b610d6d61104f565b73ffffffffffffffffffffffffffffffffffffffff16610d8b61071e565b73ffffffffffffffffffffffffffffffffffffffff1614610de1576040517f08c379a0000000000000000000000000000000000000000000000000000000008152600401610dd890611859565b60405180910390fd5b565b600073ffffffffffffffffffffffffffffffffffffffff168273ffffffffffffffffffffffffffffffffffffffff1603610e52576040517f08c379a0000000000000000000000000000000000000000000000000000000008152600401610e49906118c5565b60405180910390fd5b8060036000828254610e64919061148f565b9250508190555080600460008473ffffffffffffffffffffffffffffffffffffffff1673ffffffffffffffffffffffffffffffffffffffff168152602001908152602001600020600082825401925050819055508173ffffffffffffffffffffffffffffffffffffffff16600073ffffffffffffffffffffffffffffffffffffffff167fddf252ad1be2c89b69c2b068fc378daa952ba7f163c4a11628f55a4df523b3ef83604051610f169190611227565b60405180910390a35050565b6000600660009054906101000a900473ffffffffffffffffffffffffffffffffffffffff16905081600660006101000a81548173ffffffffffffffffffffffffffffffffffffffff021916908373ffffffffffffffffffffffffffffffffffffffff1602179055508173ffffffffffffffffffffffffffffffffffffffff168173ffffffffffffffffffffffffffffffffffffffff167f8be0079c531659141344cd1fd0a4f28419497f9722a3daafe3b4186f6b6457e060405160405180910390a35050565b60026007540361102d576040517f08c379a000000000000000000000000000000000000000000000000000000000815260040161102490611931565b60405180910390fd5b6002600781905550565b6110418282610de3565b5050565b6001600781905550565b600033905090565b600081519050919050565b600082825260208201905092915050565b60005b83811015611091578082015181840152602081019050611076565b60008484015250505050565b6000601f19601f8301169050919050565b60006110b982611057565b6110c38185611062565b93506110d3818560208601611073565b6110dc8161109d565b840191505092915050565b6000602082019050818103600083015261110181846110ae565b905092915050565b600080fd5b600073ffffffffffffffffffffffffffffffffffffffff82169050919050565b60006111398261110e565b9050919050565b6111498161112e565b811461115457600080fd5b50565b60008135905061116681611140565b92915050565b6000819050919050565b61117f8161116c565b811461118a57600080fd5b50565b60008135905061119c81611176565b92915050565b600080604083850312156111b9576111b8611109565b5b60006111c785828601611157565b92505060206111d88582860161118d565b9150509250929050565b60008115159050919050565b6111f7816111e2565b82525050565b600060208201905061121260008301846111ee565b92915050565b6112218161116c565b82525050565b600060208201905061123c6000830184611218565b92915050565b60008060006060848603121561125b5761125a611109565b5b600061126986828701611157565b935050602061127a86828701611157565b925050604061128b8682870161118d565b9150509250925092565b600060ff82169050919050565b6112ab81611295565b82525050565b60006020820190506112c660008301846112a2565b92915050565b6000602082840312156112e2576112e1611109565b5b60006112f084828501611157565b91505092915050565b6113028161112e565b82525050565b600060208201905061131d60008301846112f9565b92915050565b600063ffffffff82169050919050565b61133c81611323565b811461134757600080fd5b50565b60008135905061135981611333565b92915050565b60006020828403121561137557611374611109565b5b60006113838482850161134a565b91505092915050565b600080604083850312156113a3576113a2611109565b5b60006113b185828601611157565b92505060206113c285828601611157565b9150509250929050565b7f4e487b7100000000000000000000000000000000000000000000000000000000600052602260045260246000fd5b6000600282049050600182168061141357607f821691505b602082108103611426576114256113cc565b5b50919050565b7f4e487b7100000000000000000000000000000000000000000000000000000000600052601160045260246000fd5b60006114668261116c565b91506114718361116c565b92508282039050818111156114895761148861142c565b5b92915050565b600061149a8261116c565b91506114a58361116c565b92508282019050808211156114bd576114bc61142c565b5b92915050565b6114cc81611323565b82525050565b60006040820190506114e760008301856114c3565b6114f460208301846112f9565b9392505050565b60008151905061150a81611176565b92915050565b60006020828403121561152657611525611109565b5b6000611534848285016114fb565b91505092915050565b7f4d7573742062652063726f776466756e64696e672063616d706169676e20706c60008201527f65646765722e0000000000000000000000000000000000000000000000000000602082015250565b6000611599602683611062565b91506115a48261153d565b604082019050919050565b600060208201905081810360008301526115c88161158c565b9050919050565b60006020820190506115e460008301846114c3565b92915050565b6115f3816111e2565b81146115fe57600080fd5b50565b600081519050611610816115ea565b92915050565b600080600080608085870312156116305761162f611109565b5b600061163e878288016114fb565b945050602061164f878288016114fb565b935050604061166087828801611601565b925050606061167187828801611601565b91505092959194509250565b7f43616d706169676e20646964206e6f74206d6565742066756e64696e6720676f60008201527f616c2e0000000000000000000000000000000000000000000000000000000000602082015250565b60006116d9602383611062565b91506116e48261167d565b604082019050919050565b60006020820190508181036000830152611708816116cc565b9050919050565b7f416c7265616479206d696e74656420796f757220616c6c6f746d656e742e0000600082015250565b6000611745601e83611062565b91506117508261170f565b602082019050919050565b6000602082019050818103600083015261177481611738565b9050919050565b7f4f776e61626c653a206e6577206f776e657220697320746865207a65726f206160008201527f6464726573730000000000000000000000000000000000000000000000000000602082015250565b60006117d7602683611062565b91506117e28261177b565b604082019050919050565b60006020820190508181036000830152611806816117ca565b9050919050565b7f4f776e61626c653a2063616c6c6572206973206e6f7420746865206f776e6572600082015250565b6000611843602083611062565b915061184e8261180d565b602082019050919050565b6000602082019050818103600083015261187281611836565b9050919050565b7f58524332303a206d696e7420746f20746865207a65726f206164647265737300600082015250565b60006118af601f83611062565b91506118ba82611879565b602082019050919050565b600060208201905081810360008301526118de816118a2565b9050919050565b7f5265656e7472616e637947756172643a207265656e7472616e742063616c6c00600082015250565b600061191b601f83611062565b9150611926826118e5565b602082019050919050565b6000602082019050818103600083015261194a8161190e565b905091905056fea26469706673582212208c59dba97d65dbe7b9af04540f52cd01391fe76c7965475febb6381e4d681adf64736f6c63430008120033",
  "linkReferences": {},
  "deployedLinkReferences": {}
}